:020000040800F2
:100000000040002001B80008414E0008494E000899
:1000100000000000000000000000000000000000E0
:10002000000000000000000000000000514E000829
:1000300000000000000000005B4E0008654E000854
:1000400051B8000851B8000851B8000851B800086C
:1000500051B8000851B8000851B8000851B800085C
:1000600051B8000851B8000851B8000851B800084C
:1000700051B8000851B8000851B8000851B800083C
:1000800051B8000851B8000851B8000851B800082C
:1000900051B8000851B8000851B8000851B800081C
:1000A00051B8000851B8000851B8000851B800080C
:1000B00051B8000851B8000851B80008754E000842
:1000C0000448054B10B5834203D0044B002B00D0ED
:1000D000984710BDB4060020B406002000000000C0
:1000E00006480749091A8B10C90FC91810B54910DD
:1000F00003D0044B002B00D0984710BDB40600205D
:10010000B40600200000000010B5074C2378002B37
:1001100009D1FFF7D5FF054B002B02D0044800E0C2
:1001200000BF0123237010BDB406002000000000B2
:1001300054B80008054B10B5002B03D004490548FE
:1001400000E000BFFFF7CCFF10BDC046000000007C
:10015000B806002054B800080CB400B59DB0029158
:10016000069109491EAB07910491084904CB0591FA
:1001700002A9019300F074FB0022029B1A701DB0CB
:1001800008BC02B01847C046FFFFFF7F0802FFFF10
:100190000EB400B50B499CB01DAB029006900791C0
:1001A00004910948094904CB0591006802A901930B
:1001B00000F056FB0022029B1A701CB008BC03B072
:1001C0001847C046FFFFFF7F000000200802FFFF26
:1001D000014B18687047C0460000002070B500262B
:1001E0000C4C0D4D641BA410A64209D100260BF047
:1001F00031FB0A4C0A4D641BA410A64205D170BD08
:10020000B300EB5898470136EEE7B300EB58984738
:100210000136F2E7BCB90008BCB90008C0B9000853
:10022000BCB900080023C25C0133002AFBD1581E70
:1002300070470000F7B5050008200C0000F098FE9C
:100240000700280000F00AFB0322224E3900B368A1
:100250005B68934318001138001BC019019302F02A
:10026000BBFD441E7C43A74204DD280000F0F7FAE2
:100270000020FEBD0021280000F068FEB368019A4E
:100280009B189842F1D12800614200F05FFE0130D6
:1002900010D10021280000F059FEB268811A0F2900
:1002A000E3DD0D4C0D4B2468001B186001230B434C
:1002B0005360DAE7B2680126019B28001B1B334319
:1002C0005360064A13681B1B136000F0C8FA300025
:1002D000CFE7C0463001002028010020140800208C
:1002E000F7B50D1E01902AD000F0B8FA29000839A0
:1002F0004F6801243B000322A343C81845682740E8
:1003000095434A4A966886421AD15B19002F06D156
:100310000868091A8D681B18C868E86085600120A4
:10032000184348609160424A12689A4204D8414B8F
:1003300001981968FFF77EFF019800F090FAF7BD69
:1003400000264560B74209D10F683B4CC91BDB1939
:100350008F68A7422CD0CC68FC60A76047197C68E6
:1003600001273C420BD15B198568002E22D1324C0B
:10037000A5421FD13E0051611161CD608D60012504
:10038000280018434860CB50002ED5D18020800033
:10039000834213D2D8085B099D4053681D43C300B4
:1003A0009B1855609A68CB608A609960D160C3E7FA
:1003B0000126D3E7C068E8608560E0E75D0A042DA8
:1003C00012D898093830C600B618B5680327AE426F
:1003D00025D1012380108340506803435360CE60D1
:1003E0008D60B160E960A7E7142D02D828005B306A
:1003F000E9E7542D02D8180B6E30E4E7AA2040003C
:10040000854202D8D80B7730DDE70C4E7E20B5420E
:10041000D9D8980C7C30D6E7AD68AE4203D06A6874
:10042000BA439A42F8D8EE68D9E7C04630010020B6
:100430002C01002010080020380100205405000085
:10044000F0B50F0087B00B370190162F09D907229E
:10045000974307D50C23019A13600024200007B0AE
:10046000F0BD10278F42F5D3019800F0F7F9FC2377
:10047000BC495B009F421DD23A0008328A18100026
:1004800054680838FB08844203D1D4680233A2427E
:100490001FD003226368A1689343E268E318CA602F
:1004A0009160012259680A435A60019800F0D7F917
:1004B0000834D3E73F237A0A03D0042A1FD8BB09A4
:1004C00038335E1CF00008184468083884422ED186
:1004D00033000C69A44884425AD003256268AA43B9
:1004E000D51B0F2D39DD0123E6191F432B43676010
:1004F0004E610E61F060B0607360A550D5E7142ABC
:1005000002D813005B33DCE7542A02D83B0B6E336E
:10051000D7E7AA235B009A4202D8FB0B7733D0E7D8
:1005200092487E238242CCD8BB0C7C33C9E703259A
:100530006268AA430292D51B0F2DCADC2A1EE56809
:1005400009DBA368DD60AB60029BE2180123516800
:100550000B435360A9E72C00B8E748610861002D00
:1005600001DBA218F2E748688446802080008242BE
:1005700000D389E05509D0080122AA4065462A43E4
:100580004A60C20052189168E260A1609460CC6039
:100590000122744899108A404168914226D30A4248
:1005A00005D10324A343520004330A42FBD0DD00EB
:1005B0004519AC4602936146CC68644500D09BE087
:1005C0000834A44603240299013102912142F2D158
:1005D000234200D0B7E0436893434360614B52002D
:1005E0005968914202D3002A00D0B8E003228468FF
:1005F0006368934302939F4203D8DA1B0F2A00DDFE
:100600001CE15B4E082033681033DB19039300F0C4
:10061000AFFC584B05901B68013305D0039B424249
:10062000013B1B18134003930399019800F08EFCC3
:100630000500431C00D1D9E0029BE318834203D993
:10064000484A944200D0D1E07068039A1018059A85
:100650007060013AAB4200D08EE0134200D08BE0D4
:10066000404B02999A68039BC91801230B435360BE
:100670003F4B5A68D96A8A4200D9DA62196B8A42BA
:1006800000D8B3E01A63B1E0500A042812D89109E7
:100690003831344ECD00AD19A868854225D10122EC
:1006A00089108A4061460A437260E560A060AC60D0
:1006B000C4606DE7142802D801005B31E9E75428D3
:1006C00002D8110B6E31E4E7AA214900884202D812
:1006D000D10B7731DDE7254D7E21A842D9D8910C89
:1006E0007C31D6E78068854204D003264168B14357
:1006F0009142F7D8C568D8E703266168B1430391F2
:10070000E668C91B0F2910DD0122A568E31917430C
:100710006760EE60B5604361036113480A43D860C7
:1007200098605A60039BE150BFE6002909DB039BF8
:10073000E11801234A6813434B60A368DE60B3608D
:10074000B3E6340039E72968083D013BA94200D1EE
:100750003EE743E7043352000A42FBD027E7029BFF
:10076000FAE7C0463001002038010020540500009F
:10077000100800202801002035490E68013643D1B9
:100780000D6007212B000B40049300230D4203D082
:10079000049908335B1AED180399019869180391BD
:1007A000039E05991640CB189E1B1640310000F0A1
:1007B000CDFB431C08D1049E0398002E04D03000CA
:1007C0000026039B08381818224A401B53688019DA
:1007D0009B1953600122204B10439D6068609C422E
:1007E00000D145E7029B0F2B13D86A601A4B9C6817
:1007F000032362689A43974202D8D21B0F2A1DDC5A
:10080000019800F02CF828E61249EB1A1B184B60EF
:10081000B7E70721029B0C3B8B4361680A40052127
:100820001A436260E218516091600F2B00D81FE7F5
:10083000210001980831FFF753FD19E701210B0052
:1008400005483B4363601143E319836059602CE61C
:100850002801002010080020300100207047704758
:10086000F0B5ADB00390029104921E008B891B0677
:1008700014D50B69002B11D14021FFF7E1FD029B3C
:1008800018601861002806D10C23039A1360012315
:100890005B4207931AE34023029A536100231CAC86
:1008A0000F941193109309930793049D2B78002BB9
:1008B00001D0252B3DD1049BEF1A9D4216D0236019
:1008C000119B6760DB191193109B0834013310935F
:1008D000072B08DD029903980FAA00F061FB00289E
:1008E00000D0EEE21CAC079BDB1907932B78002BA2
:1008F00015D000220CA9CA7101216B1C15004942B8
:10090000019105925A1C04921A78782A6FDC4E2ABB
:1009100011DC392A68DC1F2A53DC002A67D1119BBD
:10092000002B00D1CDE2029903980FAA00F038FB0A
:10093000C7E20135BAE710004F382928EDD802F098
:1009400041FAE101ECFFECFFECFFECFFECFF1B02D6
:10095000ECFFECFF2B02ECFFECFFECFFECFFECFFFD
:10096000ECFFECFFECFFECFFECFFB300CB01ECFF86
:10097000ECFFECFFAF00CB01ECFFECFFB100ECFFB4
:10098000D301E801F501B100ECFFFF01ECFF21020A
:10099000ECFFECFF2A00BE4B3700099340CFEB067B
:1009A00002D46B0600D5B6B20223E90700D4AEE14B
:1009B000002E00D1ABE130200EA908704A701D4313
:1009C000A5E1100020381928A7D802F0F1F91BA6DC
:1009D000A623A6A6A6A6A6A6262EA62C32A65658BE
:1009E0005858585858585858442A00D156E10023AE
:1009F00012A90A700CAAD371012237000192089340
:100A000000915CE00CABDA79002A01D12032DA7176
:100A1000049B77E701231D43FAE708CE0593002BDB
:100A2000F6DA5B4205930423F5E72B230CAAD37176
:100A3000EEE7049B1A782A2A0FD0591C0A270023B4
:100A4000100030380491092812D90193002B00DBE3
:100A50005BE701235B42019357E7049B0133049357
:100A600008CE0193002BD3DA01235B420193CFE739
:100A70007B430A781B180131E2E78023CBE7002192
:100A8000049B05910A310598303A484312180592A3
:100A90001A780133100030380928F4D9049334E768
:100AA0004023B8E71023B6E7370008CF12AA137027
:100AB00000230CA9CB710121089301910092089B9E
:100AC000019A0693934200DA06920CABDB795A1E28
:100AD0009341069AD318069302232B400A930223CC
:100AE0001D4202D0069B0233069384232A001A403B
:100AF0000B921D421ED1059B069A9E1A002E19DDEF
:100B00002100109B6348119A013308312060102E98
:100B100000DD7FE16660B6180C0011961093072B7C
:100B200008DD029903980FAA00F03AFA002800D0D5
:100B3000C7E11CAC0CABD91DDB79002B14D02160B4
:100B40000121119A109B5218013361601192109388
:100B50000834072B08DD029903980FAA00F020FA49
:100B6000002800D0ADE11CAC0A9B002B15D00EA9CB
:100B700021600221119A109B521801336160119279
:100B800010930834072B08DD029903980FAA00F090
:100B900007FA002800D094E11CAC0B9B802B22D1DB
:100BA000059B069A9E1A002E1DDD3A4B0A933A4B7E
:100BB0000B932100109B119A01330831102E00DD98
:100BC0003AE10A981093103041C4B6180C001196FF
:100BD000072B08DD029903980FAA00F0E1F900281D
:100BE00000D06EE11CAC089B019A9E1A002E1DDD00
:100BF000284B0893284B0A932100109B119A01332C
:100C00000831102E00DD2BE108981093103041C4FC
:100C1000B6180C001196072B08DD029903980FAA4D
:100C200000F0BEF9002800D04BE11CAC009B019AFB
:100C30002360019B6360119B08349B181193109BE8
:100C400001331093072B08DD029903980FAA00F0D7
:100C5000A7F9002800D034E11CAC6D0700D513E1E2
:100C6000059B069A934200DA1300079AD31807935C
:100C7000119B002B07D0029903980FAA00F090F95E
:100C8000002800D01DE100233E0010931CAC0CE6B0
:100C900098B90008D6B80008E6B8000810231D432C
:100CA000370040CF0123002E03DA2D2276420CA913
:100CB000CA71019A002A00DA1CE1802229009143BE
:100CC0000691002E00D019E1019AB24200D199E0BC
:100CD000012B00D015E163E0371DEB06E0D4366848
:100CE0006B06DFD536B2DDE7321DEB0603D5336880
:100CF0000799196004E06D06F9D5336807991980E2
:100D00001600D2E510231D43370040CF00230022F8
:100D1000CDE71023371D1D42F6D140212B0032684C
:100D20000B4016000D42F2D096B2EFE737000223D7
:100D3000824A0CA90A81824A40CF1D430992E6E704
:100D40003700002608CF00930CABDE71019BB34245
:100D50000DDB1A003100009800F016F90890B0423F
:100D600000D1ACE6009BC31A01930896A7E6009851
:100D7000FFF758FA0190F8E710231D4337000123CD
:100D800040CFC4E7371DEB06F8D4326801231600C4
:100D90006906BCD596B2BAE76A4BFDE5092E06D8BE
:100DA000303614ABDE773F230CAA9B18C4E01CAB93
:100DB0000093009B3000013B0A21009302F048F8A9
:100DC000009B3031300019700A2102F005F835001F
:100DD0000600092DEDD8019B009A08931CAB9B1AC5
:100DE000069D01936BE60F221CAB0093009B0999B3
:100DF000013B009333001340CB5C009936090B7024
:100E0000F4D1E8E71CAA0092002BE4D1ED07E2D56B
:100E10003026C6E710201218606011921093072B3D
:100E200007DD029903980FAA00F0BAF8002848D10C
:100E30001CA90C00103E63E60B9810932060102054
:100E4000121860601192072B07DD029903980FAA10
:100E500000F0A6F8002834D11CA90C00103EA8E62A
:100E60000A98109320601020121860601192072BCE
:100E700007DD029903980FAA00F092F8002820D10C
:100E80001CA90C00103EB7E6059B069A10269D1A79
:100E9000002D00DCE4E6109B2B49119A0133216000
:100EA000102D16DC6560AD1811951093072B00DC32
:100EB000D6E6029903980FAA00F072F8002800D134
:100EC000CEE6029B9B895B0600D5E0E407982DB037
:100ED000F0BD10326660119210930834072B07DDC5
:100EE000029903980FAA00F05BF80028E9D11CAC26
:100EF000103DD0E70695002E00D1E9E6012B00D188
:100F00004CE7022B00D16EE707211CAB0093009A3F
:100F1000531E0093330000980B4030330370F608E3
:100F2000F5D10699C90700D455E7302B00D152E717
:100F30003023411E0B70931E00934CE73078000065
:100F400098B90008A9B90008D6B80008002370B500
:100F5000064C05000800236008F020F8431C03D16C
:100F60002368002B00D02B6070BDC0460C08002009
:100F7000802310B55B01082804D0FFF729F9162358
:100F80000360173B180010BDC9B28218904201D10E
:100F90000020704703788B42FBD00130F6E7000059
:100FA000F0B5936887B00C0017000490002B51D067
:100FB00013680393039B1B680593039B5B68019372
:100FC000002B4CD0A66835009E4260D80C23E05E12
:100FD0009023DB0018422DD00322216923685B1A7D
:100FE000029363695343DD0FED18029B019A0133AD
:100FF0006D109B182A00AB4201D91D001A00400554
:1010000030D511000498FFF71BFA061E33D0029A60
:10101000216900F008FCA2891E4B1A40802313436B
:10102000A381029B2661F61826606561019EED1A78
:10103000A56035002A000599206800F0E1FBA3684F
:10104000019A9B1BA36023685B192360BB689B1AF2
:10105000BB6004D1002000237B6007B0F0BD039B80
:101060000833A6E7049800F0E7FB061ED9D12169F2
:101070000498FFF735F90C23049A01201360A28924
:1010800034331343A38100234042BB60E3E7019E56
:10109000CFE7C0467FFBFFFFF0B5AFB005900491EE
:1010A00006921D008B891B0614D50B69002B11D1EC
:1010B0004021FFF7C5F9049B18601861002806D18C
:1010C0000C23059A136001235B4209935AE04023E5
:1010D000049A536100261EAC119400960B96099653
:1010E000069F3B78002B01D0252B4ED1069BFB1A87
:1010F0000193069B9F421BD02360019B6360F618FF
:10110000009B083401330093072B0DDD009B0499ED
:10111000059811AA12931396FFF742FF00282DD1CC
:10112000129B139E00931EAC099B019A9B18099376
:101130003B78002B18D000230EA9CB7101217A1C1B
:101140001F00494203910793531C12780693782A93
:1011500000DD78E04E2A1ADC392A00DD71E01F2A12
:101160005CDC002A00D06EE0002E07D0009B0499C2
:10117000059811AA12931396FFF712FF049B9B89FF
:101180005B06A0D409982FB0F0BD0137A9E7100085
:101190004F382928E5D801F015FEF400E4FFE4FFFC
:1011A000E4FFE4FFE4FF1D02E4FFE4FF3002E4FF9C
:1011B000E4FFE4FFE4FFE4FFE4FFE4FFE4FFE4FF17
:1011C000E4FFB100DD00E4FFE4FFE4FFAD00DD007B
:1011D000E4FFE4FFAF00E4FFE600FC000A01AF001B
:1011E000E4FF1901E4FF2402E4FFE4FF2A00754B49
:1011F0000B932B0020CB0193FB0602D47B0600D57A
:10120000ADB20223F90700D4C1E0002D00D1BEE049
:10121000302010A908704A701F43B8E01000203831
:1012200019289ED801F0C4FD169D9D1E9D9D9D9D73
:101230009D9D21299D272D9D5355555555555555F6
:101240005555442A67D014AB1A7000220EA9CA71F2
:1012500001955BE00EABDA79002A01D12032DA7118
:10126000069A71E701231F43FAE708CD0793002B85
:10127000F6DA5B4207930423F5E72B230EAAD3711A
:10128000EEE7069B1A782A2A10D00A20591C8446B9
:101290000023100030380691092812D90393002B3F
:1012A00000DB54E701235B42039350E7069B0133C5
:1012B000069308CD0393002BD2DA01235B420393FC
:1012C000CEE7624653430A781B180131E1E78023D9
:1012D000C9E70021069B07910A310798303A484335
:1012E000121807921A780133100030380928F4D9FF
:1012F00006932CE74023B6E71023B4E7290004C97E
:1013000014AB1A70002201910EA9CA7101210A9230
:101310000391029371E010231F432B0020CB019314
:101320000123002D03DA2D226D420EA9CA71039A02
:10133000002A00DA3EE28022390091430891002D14
:1013400000D03BE2039AAA4200D18CE1012B00D0ED
:1013500037E256E12B1D0193FB06DED42D687B0698
:10136000DED52DB2DCE72A1DFB0603D52B680999D3
:10137000196004E07F06F9D52B68099919801500DA
:10138000AEE610231F432B0020CB01930023002245
:10139000CBE72B1D019310231F42F4D140213B00CA
:1013A0002A680B4015000F42F1D095B2EEE72B00F2
:1013B00020CB054A019302230EA90A81014A1F434B
:1013C0000B92E4E798B90008307800002B00002564
:1013D00004CB01930EABDD71039B0292AB4200DAAA
:1013E000F3E01A0029000298FFF7CEFD0A90A84208
:1013F00003D0029BC31A03930A950A9B039A08938E
:10140000934200DA08920EABDB795A1E9341089A98
:10141000D318089302233B400C9302231F4202D0AF
:10142000089B0233089384233A001A400D921F420E
:1014300021D1079B089A9D1A002D1CDD2200009BDC
:10144000C349013308322160102D00DD13E10099FA
:1014500065607619062900DC23E10499059811AA34
:1014600012931396FFF79CFD002800D086E6129B8E
:10147000139E00931EAC0EABDA1DDB79002B0BD054
:1014800022600122009B6260B618009A0133062A8E
:1014900000DD09E1083400930C9B002B0CD010AA4E
:1014A00022600222009B6260B618009A0133062A6D
:1014B00000DD08E1083400930D9B802B25D1079BAC
:1014C000089A9D1A002D20DDA14B0C93A14B0D9382
:1014D0002200009B08320133102D00DD02E10C993F
:1014E0007619103122C40099062900DC12E1049912
:1014F000059811AA12931396FFF752FD002800D009
:101500003CE6129B139E00931EAC0A9B039A9D1A05
:10151000002D20DD8E4B0A938E4B0C932200009BF6
:1015200008320133102D00DDF7E00A9976191031E9
:1015300022C40099062900DC07E10499059811AA44
:1015400012931396FFF72CFD002800D016E6129B8D
:10155000139E00931EAC029B2360039B6360F618EE
:10156000009B08340133072B0CDD0499059811AA60
:1015700012931396FFF714FD002800D0FEE5129B8E
:10158000139E1EAC7F0706D5079A08991027551A97
:10159000002D00DDF6E0079A08998A4200DA0A0079
:1015A00009998A180992002E0AD00499059811AA5F
:1015B00012931396FFF7F4FC002800D0DEE5139E8B
:1015C0000023019D00931EAC8AE50298FEF72AFED7
:1015D000039011E710231F432B0020CB019301231D
:1015E000D5E62B1D0193FB06F6D42A6801231500CE
:1015F000790600D4CBE695B2C9E6574BF8E5092D3C
:1016000006D8303516ABDD773F230EAA9B18F3E0E2
:101610001EAB0293029B2800013B0A21029301F0BA
:1016200017FC029B3031280019700A2101F0D4FB0D
:101630002F000500092FEDD8039B029A0A931EABD9
:101640009B1A089F0393D8E60F221EAB0293029BBE
:101650000B99013B02932B001340CB5C02992D099F
:101660000B70F4D1E8E71EAA0292002BE4D1FF0729
:10167000E2D53025C6E7102161607618072B0CDD16
:101680000499059811AA12931396FFF789FC002874
:1016900000D073E5129B139E1EAA1400103D009308
:1016A000CCE614000093E6E60499059811AA12937B
:1016B0001396FFF775FC002800D05FE5129B139E80
:1016C00000931EACE8E60499059811AA12931396AC
:1016D000FFF766FC002800D050E5129B139E009394
:1016E0001EACE9E60D992160102161607618072B88
:1016F0000CDD0499059811AA12931396FFF750FC7C
:10170000002800D03AE5129B139E1EAA1400103D3B
:101710000093DDE614000093F7E60C992160102198
:1017200061607618072B0CDD0499059811AA1293B5
:101730001396FFF735FC002800D01FE5129B139E7F
:101740001EAA1400103D0093E8E61400009302E77F
:10175000F6B8000806B90008A9B900086760103695
:101760000834072A0CDD12920499059811AA1396E1
:10177000FFF716FC002800D000E5129A139E1EAC5D
:101780001300103D1D495A1C2160102DE6DC6560D8
:101790007619062B0CDD12920499059811AA13965E
:1017A000FFF7FEFB002800D0E8E4129B139EF2E650
:1017B0001300F0E60897002D00D1C7E5012B00D1FA
:1017C0001DE7022B00D13FE707211EAB0293029ACF
:1017D000531E02932B0002980B4030330370ED0828
:1017E000F5D10899C90700D426E7302B00D123E7AB
:1017F0003021431E1970931E02931DE7F6B80008AE
:1018000010B5884202D98B18984209D300239A4216
:1018100008D0CC5CC4540133F9E7013A8B5C8354A3
:10182000002AFAD110BD002310B59A4200D110BD94
:10183000CC5CC4540133F8E7F0B587B00C1E0390BC
:10184000059206D11100FEF7FBFD0700380007B036
:10185000F0BD0398FFF702F8059B0B33162B08D950
:1018600007229343019306D50C23039A13600027A4
:10187000ECE710230193059B019A9342F4D82300CF
:10188000083B5F6802933A0003239A4313000492D3
:10189000019A934200DB70E1049A029BBA489B18BC
:1018A000826894465A689C4506D001251100A943D8
:1018B0005918496829423FD103218A4304998E1857
:1018C00001999C4513D11031B14237DC019A0121B5
:1018D0009446B61A2200029B0E4363448360083A82
:1018E0005E6053680B4061460B4353601FE0B1429A
:1018F00024DCDA689B68DA609360019B029AF01A34
:10190000029B92195D6801231D400F2800D836E123
:10191000019E029935438919029E184375604860FB
:1019200050680831034353600398FEF7D9FC0398CD
:10193000FEF795FF270089E700221300FF0700D577
:10194000CEE02100032008390D6802994D1B69681B
:10195000814304980F18002B00D188E0D6199C45CC
:1019600048D1019B1033B34200DD80E02F00AA680C
:10197000EB680837D3609A60021F242A35D83B00F1
:10198000132A08D92368AB606368EB601B2A1AD856
:101990002B000834103322681A6062685A60A2680B
:1019A0009A60019B784AEB189360019AB61A01225B
:1019B00016435E606B681340019A13436B60039893
:1019C000FEF74DFF42E7A3682B61E3686B61242AB1
:1019D00003D02B0010341833DDE72369AB612B00F3
:1019E00062692033EA611834D5E721003800FFF737
:1019F00007FFD6E7019AB24239DC2F00DA689B680C
:101A00000837DA609360AA68EB68D3609A60049A3A
:101A1000043A242A26D83B00132A08D92368AB604D
:101A20006368EB601B2A0BD82B0008341033226844
:101A30001A6062685A60A2689A603C0002955CE78E
:101A4000A3682B61E3686B61242A03D02B00103458
:101A50001833ECE72369AB612B0062692033EA613C
:101A60001834E4E721003800FFF7CAFEE5E7019BE0
:101A7000BB4235DC2E00AA68EB680836D3609A605A
:101A8000049A043A242A26D83300132A08D9236852
:101A9000AB606368EB601B2A0BD82B000834103353
:101AA00022681A6062685A60A2689A6034003E0038
:101AB000C4E7A3682B61E3686B61242A03D02B0081
:101AC00010341833ECE72369AB612B0062692033D3
:101AD000EA611834E4E721003000FFF791FEE5E702
:101AE00005990398FEF7ACFC071E03D10398FEF797
:101AF000B6FEBCE623000122083B5B689343029AD2
:101B0000D3180200083A934205D15E6803239E432E
:101B1000049BF618F1E6049A043A242A29D8030013
:101B20002100132A08D923680360636843601B2AD5
:101B30000DD80300083108330A681A604A685A60F1
:101B40008A689A6021000398FEF7CAFB37E7A3680A
:101B50008360E368C360242A03D00300103110338C
:101B6000EAE72369183103610300626918334261AF
:101B7000E2E72100FFF744FEE4E7049EBDE6029998
:101B80002E434E605168AFE630010020F7B51400D7
:101B90001D000090019100F0F3FA220006000F00F2
:101BA0002B002000290002F0CFFC00283FD1009834
:101BB00001990022002301F067F9002819D00022C2
:101BC00000232000290001F05FF9002846D1200001
:101BD000290000F0EDF9002829D000220023200080
:101BE000290001F057F9002821D0FEF7F1FA22234D
:101BF0001CE03000390000F0DBF900281BD1009810
:101C0000019900F0D5F9002815D02000290000F036
:101C1000CFF900280FD032003B003000390002F02D
:101C200093FC0028E1D0FEF7D3FA212303603000B3
:101C3000390003B0F0BD002200233000390001F06C
:101C400023F90028F3D00098019900F0B1F9002899
:101C5000EDD02000290000F0ABF9C4E70026014FC9
:101C6000E5E7C0460000F03FF8B504000D0000F0C5
:101C7000A7F9220006000F002B002000290002F027
:101C800063FC002813D1002200232000290001F06A
:101C900001F900280BD0FEF79BFA212300220360F4
:101CA00000231000190001F0D9FB06000F003000DE
:101CB0003900F8BDF0B5964B85B04E0004000D001C
:101CC000039176089E4218D9924B9E4202D80AD1BF
:101CD000002808D022002B002000290001F002F982
:101CE00004000D0005E0039B8B4C002B00DC0DE194
:101CF0008A4D2000290005B0F0BD894B9E420FD8C7
:101D0000884B9E4209D8884A884B01F0EBF80022A4
:101D1000874B01F0D3F80028EBD101235B4225E08B
:101D200000F042F9834B04000D009E4200D9AAE066
:101D3000814B9E4200D990E002000B0001F0D2F8E6
:101D400000227B4B02F03CF9802306000F000022AA
:101D500020002900DB0501F0C5F80B000200390066
:101D6000300001F07BFB002304000D0022000293F1
:101D700020002B00290001F003FF02000B0000905F
:101D8000019101F0FDFE06000F006C4A6C4B01F062
:101D9000F7FE6C4A6C4B01F0A5F832003B0001F0F5
:101DA000EFFE6A4A6A4B01F09DF832003B0001F0F9
:101DB000E7FE684A684B01F095F832003B0001F0FD
:101DC000DFFE664A664B01F08DF832003B0001F001
:101DD000D7FE644A644B01F085F8009A019B01F03C
:101DE000CFFE624A00900191614B3000390001F052
:101DF000C7FE604A604B02F0E3F832003B0001F09E
:101E0000BFFE5E4A5E4B02F0DBF832003B0001F0A1
:101E1000B7FE5C4A5C4B02F0D3F832003B0001F0A5
:101E2000AFFE5A4A5A4B02F0CBF832003B0001F0A9
:101E3000A7FE02000B000098019901F053F82B0057
:101E4000220001F09DFE029B013343D102000B00F2
:101E50002000290002F0B4F842E70022344B02F0DF
:101E6000AFF8002206000F0020002900304B01F0DF
:101E700039F80B0002003900300001F0EFFA0123BD
:101E800004000D0072E7434B9E4219D80022424BDA
:101E900002F096F8002206000F00200029003E4BB9
:101EA00001F06EFE0022224B01F01CF80B00020034
:101EB0003900300001F0D2FA022304000D0055E78A
:101EC0000B0002003549002001F0C8FA032304008A
:101ED0000D004BE7029B324ADE009619326A736AA4
:101EE00002F06EF822002B0002F06AF80B000200EC
:101EF00003CE02F065F8039B04000D00002B00DB0D
:101F0000F7E6802109066B181D00F2E6254DF0E684
:101F1000FFFF0F440000F07F182D4454FB21F93FD0
:101F2000FFFFDB3FFFFF1F3E9C7500883CE4377ED0
:101F30000000F03FFFFFF23FFFFFE53F11DA22E331
:101F40003AAD903FEB0D76244B7BA93F513DD0A09D
:101F5000660DB13F6E204CC5CD45B73FFF83009263
:101F60002449C23F0D5555555555D53F2F6C6A2C08
:101F700044B4A2BF9AFDDE522DDEAD3F6D9A74AF20
:101F8000F2B0B33F711623FEC671BC3FC4EB989903
:101F90009999C93FFF7F03400000F83F0000F0BF60
:101FA00018B90008FB21F9BF49004B081900704718
:101FB000024B48004008C018C00F70470000108056
:101FC0006B4BF0B51A0004000D0087B00A409A422E
:101FD0000FD102000B0001F0D3FD02000B00200026
:101FE000290000F07FFF04000D002000290007B049
:101FF000F0BD0A000300002911DC49004908014333
:10200000F3D00020854213D022002B0020002900AD
:1020100001F0D6FF02000B0001F020FAE3E70815FB
:1020200015D180240021640307E0DA0A15385B0526
:10203000002AFAD0F5E7520001312242FBD04C1EB3
:10204000001B20241D00641AE5408B402A434949A7
:10205000120344188021120B49031143C00703D413
:10206000DA0F490051185B000025621049008024F6
:102070000592DA0F5218162029005B00A4030E19EE
:10208000964202DC3119921B2D19DE0F52000138E5
:10209000B2185B0064080028F1D1202680270400D4
:1020A00004963F063E18B4468A4202DC13D19E4293
:1020B00011D860466646C0190091002E03DAC64367
:1020C000F60F8E190096521A6345894152186146DF
:1020D0005B1A0099E419DE0F5200B218049E5B00EF
:1020E000013E7F080496002EDCD11A43B2421ED076
:1020F000214E30687168B268F368009201933268CB
:10210000736802920393009A019B01F059FF020049
:102110000B000298039900F0C7FE002807D0306832
:102120007168B268F368671C0DD1049C0135134BCC
:102130006910C918059B64081805ED072543431865
:102140002C001D0051E700F0CDFEC0CE02000B00B8
:102150003000390000F09EFE002804D002346342B3
:102160006341ED18E3E7012301349C43DFE7C046F8
:102170000000F07F01FCFFFF58B900080000E03FBD
:10218000F0B595B002920393039B039A0493029BCC
:1021900055001A006D0806000F002A4319D180214E
:1021A0000903794002000B0092185B4189498B4278
:1021B00006D801D000F0C0FC002A01D100F0BCFC20
:1021C000029A039B3000390000F08CFE00900191D0
:1021D0008EE0814A4C000A910D90640894420DD81B
:1021E00004D10028ECD1A542EAD802E07A4A95420F
:1021F00004D8794A95420CD1002B0AD0774BFB18B2
:102200003343DDD180210398090348400300029A3B
:10221000CAE7002206920A9A0894002A45DA704A10
:10222000954240D86F4A954211D96F492A155218E4
:10223000142A1ADD3421891A029ACA4010008840F3
:10224000984204D101210A4049188A1A0692002BAB
:102250005ED18023049ADB059A424DD132003B00C7
:102260003000390001F08CFCB0E7002B50D1143362
:102270009A1A2B00134119009140A94204D101225E
:1022800013409218D31A0693584B9D42E1D1049BF8
:1022900000960197002B2BDA32003B0000205349B7
:1022A00001F0DCF892E702220692002B30D14A4B73
:1022B0009D42E9D1494BE318334301D100F03CFC86
:1022C000484B9C420AD9029B039C00930194049BB7
:1022D000002B0DDA0023002400F030FC049B002BBF
:1022E000F8DA8022029B12060093039B9B1801934D
:1022F0000098019915B0F0BD3D4B049A9A4207D160
:102300000A9B002B04DB30003900FFF759FE5DE724
:1023100030003900FFF748FE0D9B00900191002B23
:102320002DD1324ABB009B08934201D0002C26D10C
:10233000049B002B07DA009A019B00202B4901F037
:102340008DF8009001910A9B002BD1DA234BE41801
:10235000069B1C4308D1009A019B1000190001F054
:102360002FFE02000B009BE7069B012BC0D18021B2
:102370000198009A0906431800920193B8E7FB0FF1
:10238000013B1193119A069B134304D132003B0089
:1023900030003900E3E7174B9D4200D8F2E0164BBE
:1023A0009D4209D90F4B9C420CD8049B002B0CDAA0
:1023B000002000F089FC09E7104B9C42F5D90B4B3B
:1023C0009C421DD9049B002BF2DC002000F06DFC28
:1023D000FCE6C0460000F0FF0000F07F000010C0E7
:1023E000FFFF3F43FFFFEF3F01FCFFFF0000F03F17
:1023F0000000E03F0000E0410000F043FEFFEF3F3F
:10240000002200980199544B01F0DAFDC022534B91
:10241000D20506000F0001F0B3FB514A0090019174
:10242000504B3000390001F0ABFB002204900591C5
:102430004D4B3000390001F0A3FB02000B004B486C
:102440004B4901F0BDFD32003B0001F099FB020059
:102450000B000020474901F0B3FD320004000D00DD
:102460003B003000390001F08BFB02000B00200024
:10247000290001F085FB404A384B01F081FB020046
:102480000B000498059901F09BFD02000B0004006D
:102490000D000098019900F025FD009A019B002095
:1024A0000490059101F08CFD02000B002000290032
:1024B00001F086FD069B119A013B06000F001343B5
:1024C00000D1DCE10023244C00930194029B039C87
:1024D000029803990893099400230893089C099D86
:1024E00022002B0001F06CFD049A059B01F048FBD3
:1024F000029A039B069007913000390001F040FBDF
:1025000002000B000698079900F0ECFC22002B005B
:10251000069007910498059901F032FB0B00020028
:1025200006000F000698079900F0DCFC134B04002E
:102530000D000491994200DCBDE1114BCB1803431F
:1025400000D19FE1009801990023002200F0A2FC35
:10255000431E98412DE7C0460000F03F4715F73F66
:1025600044DF5DF80BAE543E0000D03F5555555545
:102570005555D53F0000E03FFE822B65FFFF8F40A1
:10258000000070BFDB4B00223B420BD10098019949
:102590000022D94B01F0F4FA352200900191019B01
:1025A00052420893089BD5491B155B189B180D9345
:1025B000089BD34D1B03D34A1B0B00241D4393429E
:1025C00009DDD14A0134934205DD0D9B1B1900241E
:1025D0000D93CE4BED18009801992900CC4BE200E9
:1025E0009B1810930CCB0E900F910A920B9301F055
:1025F000E7FC0E9A0F9B06000F000A980B9900F05B
:1026000071FC02000B000020BD4900F027FF020012
:102610000B00129013913000390001F0B1FA0890CC
:102620000991089A099B0492059300230493049A44
:10263000059B009201938022802300206D1092055B
:102640002A431B03D218A40411190D000400020030
:102650000B000098019901F093FA02000B00300082
:10266000390001F0ADFC0A9A0B9B06000F00200018
:10267000290001F0A5FC02000B000E980F9901F053
:102680009FFC009A019B01F07BFA02000B003000D6
:10269000390001F095FC129A139B01F071FA089A27
:1026A000099B0A900B911000190001F069FA0600CD
:1026B0000F00984A984B01F063FA984A984B00F043
:1026C00011FC32003B0001F05BFA964A964B00F099
:1026D00009FC32003B0001F053FA944A944B00F09D
:1026E00001FC32003B0001F04BFA924A924B00F0A1
:1026F000F9FB32003B0001F043FA904A904B00F0A6
:10270000F1FB320004000D003B003000390001F005
:1027100037FA02000B002000290001F031FA009A7C
:10272000019B04000D000898099900F0DBFB0A9A50
:102730000B9B01F025FA22002B0000F0D3FB009A3E
:10274000019B0E900F911000190001F019FA002260
:102750007C4B04000D0000F0C5FB0E9A0F9B00F0AF
:10276000C1FB00200F00060002000B000098019939
:1027700001F006FA002200900191724B30003900FE
:1027800001F01EFC22002B0001F01AFC02000B00DD
:102790000E980F9901F014FC089A099B01F0F0F9CA
:1027A000320004000D000A980B993B0001F0E8F993
:1027B00002000B002000290000F094FB04000D0033
:1027C00002000B000098019900F08CFBE022002031
:1027D0005D4B120606000F0001F0D2F9009A019B32
:1027E000089009913000390001F0EAFB02000B006B
:1027F0002000290001F0E4FB544A534B01F0C0F9DA
:10280000534A04000D0030003900524B01F0B8F972
:1028100002000B002000290000F064FB109B1A69E5
:102820005B6900F05FFB009001910D9801F0DEFE06
:1028300004000D0008980999109B1E6A5F6A009AAF
:10284000019B00F04FFB32003B0000F04BFB2200ED
:102850002B0000F047FB002022002B000490059184
:1028600001F0AEFB32003B0001F0AAFB089A099B85
:1028700001F0A6FB02000B000098019918E6002366
:10288000354C21E6354A364B0698079900F02AFB6D
:102890003200029003913B002000290001F090FBE0
:1028A00002000B000298039900F008FB002800D0FA
:1028B00048E62C4B63E02C4A4B005B08934259D905
:1028C0002A4BCB18034308D000980199002300221B
:1028D00000F0E0FA431E984178E532003B0001F039
:1028E0006FFB069A079B00F0F3FA0028ECD1204B0F
:1028F00045E0C0460000F07F0000404301FCFFFFC0
:102900000000F03F8E98030079B60B000000F0FF46
:1029100068B90008EF4E454A287ECA3F65DBC99377
:102920004A86CD3F01411DA96074D13F4D268F518C
:102930005555D53FFFAB6FDBB66DDB3F033333330C
:102940003333E33F0000084009C7EE3FFD033ADCA4
:10295000F5015B14E02F3EBE0000F0BFFE822B6548
:102960004715973C00009040FFCB904000346F3FEC
:1029700000CC90400899734A0291934225D9724A3B
:102980001B159B1880225203110019414B195C0042
:102990006E496F4D640D641825411D401B031B0BD0
:1029A00013431422121B13410293049B002029009D
:1029B000002B02DA029B5B42029302000B00300004
:1029C000390001F0FDFA06000F00069A079B30005F
:1029D000390000F087FA002000225E4B0490059138
:1029E00001F0CEF832003B00089009910498059957
:1029F00001F0E6FA02000B000698079901F0E0FAF0
:102A0000554A564B01F0BCF8554A04000D00049895
:102A10000599544B01F0B4F802000B002000290086
:102A200000F060FA04000D0002000B0008980999FC
:102A300000F058FA089A099B06000F0001F0C0FA4E
:102A400002000B002000290001F0BAFA32000490C5
:102A500005913B003000390001F092F804000D00B0
:102A6000414A424B01F08CF8414A424B01F0A8FA2E
:102A700022002B0001F084F83F4A404B00F032FA6C
:102A800022002B0001F07CF83D4A3E4B01F098FA01
:102A900022002B0001F074F83B4A3C4B00F022FA74
:102AA00022002B0001F06CF802000B00300039000E
:102AB00001F086FA04000D0002000B00300039001E
:102AC00001F05EF880230690079100222000290083
:102AD000DB0501F075FA02000B000698079900F07B
:102AE000BDFC049A059B04000D003000390001F084
:102AF00047F8049A059B00F0F5F902000B0020004E
:102B0000290001F05DFA32003B0001F059FA0200A1
:102B10000B0000201E4901F053FA029B1B055B18B5
:102B20001A15002A06DC029A00F034F8009A019B7C
:102B3000FFF798FB1900F9E70023154C0093019467
:102B4000FFF7D6FB0000E03F02FCFFFF01FCFFFFA8
:102B50000000F0FF432EE63FEF39FAFE422EE63F3B
:102B6000396CA80C615C20BED0A4BE726937663E89
:102B7000F16BD2C541BDBB3E2CDE25AF6A56113F7D
:102B800093BDBE166CC1663F3E5555555555C53F64
:102B90000000F03F70B514004A000B00520D10D138
:102BA0004B005B080343934211D0234B002200F0FB
:102BB000E7FF224B9C420BDA214A224B00F0E0FF58
:102BC00005E0214DAA4207D1020000F08BF970BD4B
:102BD0000B004A00520D363A1C4DAC4203DCA218E1
:102BE0001B4CA2420ADD1B4C1B4D002901DA194C7B
:102BF0001A4D184A184B20002900DFE7002A05DD8E
:102C0000174C1205234013431900E0E71400353434
:102C100008DA0B4C0B4D002901DA094C114D084A1A
:102C2000084BE8E70E4C3632234012051A431100D8
:102C30000D4B0022C2E7C04600005043B03CFFFFEE
:102C400059F3F8C21F6EA501FF07000050C3000032
:102C5000FE0700009C7500883CE4377E3CE437FEAC
:102C6000FFFF0F801F6EA5810000903C70B50D0026
:102C700016000400FDF7ACFA29000660200070BDC4
:102C800037B514001D00002802D0802109065B180A
:102C900000920193009A019B2000290000F070FF30
:102CA0002222FFF7E3FF03B030BD802310B50022DE
:102CB0005B05FFF7E5FF10BD10B50022014BFFF7E4
:102CC000DFFF10BD0000581EE02310B50022DB0519
:102CD000FFF7D6FF10BD07B5002200280DD0084B26
:102CE00000920193009801990023002200F0B6FBA6
:102CF0002222FFF7BBFF03B000BD024BF0E7C04646
:102D00000000F0BF0000F03FF8B502000B00040027
:102D10000D0001F055F902000B0000F09FFB2200AE
:102D200006000F002B002000290001F00DFC0028F8
:102D300006D1300039002122FFF798FF06000F006E
:102D400030003900F8BD70B50022002304000D00EA
:102D500000F09AF8002806D0200029002222FFF770
:102D600085FF04000D002900200070BD0122F8B588
:102D70004B005F080D000D4B39005242040001F07A
:102D8000E3FB00280FD1012220003900074B5242FB
:102D900000F08AF8002806D1200029002222FFF73F
:102DA00065FF04000D0029002000F8BDFFFFEF7F44
:102DB00002B4714649084900095649008E4402BCD4
:102DC0007047C04603B47146490840004900095E97
:102DD00049008E4403BC7047002934D001230022EF
:102DE00010B488422CD301242407A14204D281428A
:102DF00002D209011B01F8E7E400A14204D281429A
:102E000002D249005B00F8E7884201D3401A1A4316
:102E10004C08A04202D3001B5C0822438C08A0424D
:102E200002D3001B9C082243CC08A04202D3001B03
:102E3000DC082243002803D01B0901D00909E3E77D
:102E4000100010BC704701B5002000F00BF802BD67
:102E50000029F8D003B5FFF7C1FF0EBC4243891A21
:102E60001847C0467047C0468446100062468C46EC
:102E70001900634600E0C0461FB500F017FE0028A9
:102E800001D40021C8421FBD10B500F065FD4042CD
:102E9000013010BD10B500F009FE002801DB002054
:102EA00010BD012010BDC04610B500F0FFFD002888
:102EB00001DD002010BD012010BDC04610B500F09E
:102EC00087FD002801DC002010BD012010BDC04698
:102ED00010B500F07DFD002801DA002010BD0120B2
:102EE00010BDC046F0B585B002920393CB0F0D0321
:102EF0000193039B4C006D0A410F1E0329435D00A3
:102F0000DB0F9C46029B760A5B0F029A3343019EBD
:102F1000640D6D0DC000D200671B664500D025E131
:102F2000002F00DC77E0002D3BD11D0015431DD0A4
:102F30007D1E012F17D1821882428041C918091ABB
:102F400010000B0200D4FBE0BD4B01379F4200D1C3
:102F500079E20122BB4B0240194043081343C807E2
:102F600018434908ECE0B64EB74222D14A07CB08D5
:102F7000B349C00802438F4206D11100194300D162
:102F800064E2802109030B431000AF4A3F051B0395
:102F900017401B0B1F43019BDB071F43390005B084
:102FA000F0BDA74DAC4200D1CBE180252D042B43D1
:102FB0003D00382D2ADC1F2D17DC20261F00761B34
:102FC000B74002963E001700EF403743029EEB40A9
:102FD000B2401600721E96413E433618864280412A
:102FE0005918091A27003000ABE72E001F00203EB9
:102FF000F7400026202D03D04036761BB3401E003C
:103000001643731E9E413E430023E6E713431E0012
:10301000731E9E41F8E7002F4DD02F1B002C11D1BD
:103020000C0004430BD07C1E012F05D18018904268
:103030009241C918891A84E7814EB7420AD1190012
:10304000100093E77E4CA54200D1F6E180242404D1
:1030500021433C00382C29DC1F2C16DC20260F00D5
:10306000361BB74002963E000700E7403743029EFA
:10307000E140B0400600701E86413E43B0189042C9
:103080009241C9182F00891A5BE726000F00203EE5
:10309000F7400026202C03D04036361BB1400E00EE
:1030A0000643711E8E413E430021E7E701430E00B7
:1030B000711E8E41F8E7654D671C2F4233D10D001C
:1030C0000543002C13D1A54200D1B0E11C001443EC
:1030D00000D1AEE1821882428041CB181B1A19023E
:1030E00000D4A4E157491000012719403EE7002D04
:1030F00000D1A2E11C00524F144300D136E74C0727
:10310000C00820438024C9082403214206D0DD08DA
:10311000254203D12900D0085B071843CA00410F9C
:103120001143C0000DE1464CA74200D18BE182184B
:1031300082428041CB181B1AD80752081043590805
:10314000430708D00F230340042B04D0031D834200
:103150008041091A18000B0200D407E7384B0137E9
:103160009F4200D16FE1374B1940FFE6002F54DD3D
:10317000002D33D11D00154300D1F7E67D1E012F30
:103180000CD1821A90428041C91A091810000B0212
:10319000D6D549023C004D0A0290FEE0284EB742C7
:1031A00000D1E3E6382D33DC1F2D20DC20261F0064
:1031B000761BB74002963E001700EF403743029E51
:1031C000EB40B2401600721E96413E43861BB04251
:1031D0008041C91A091827003000D8E7184DAC42C1
:1031E00000D1AEE080252D042B433D00DAE72E0010
:1031F0001F00203EF7400026202D03D04036761BCE
:10320000B3401E001643731E9E413E430023DDE77C
:1032100013431E00731E9E41F8E7002F57D02F1B4B
:10322000002C1BD10C00044315D07C1E012F0FD1A4
:10323000101A82429241591A891863460193A6E7EF
:10324000FF070000FFFF7FFF0000F07FFE07000088
:103250007F4EB7420AD161460191F0E67C4CA5420F
:1032600000D1E8E08024240421433C00382C29DCF0
:103270001F2C16DC20260F00361BB74001963E009F
:103280000700E7403743019EE140B0400600701E52
:1032900086413E43901B82429241591A2F00891861
:1032A000CBE726000F00203EF7400026202C03D05D
:1032B0004036361BB1400E000643711E8E413E4320
:1032C0000021E7E701430E00711E8E41F8E7614ED1
:1032D000651C354250D10E001D0006431543BC420B
:1032E00027D1A6420FD1390038000197BD4200D145
:1032F0003CE61000624601920100194300D19FE0B4
:10330000190000271CE7002D00D192E0851AA84281
:10331000B641CC1AA419260205D5101A8242924150
:103320005B1A9B18E6E7280020435CD023002800A6
:10333000E2E7002E07D1B5427DD180213800019708
:10334000C903434F12E6424F002D00D10EE64C0751
:10335000C00820438024C9082403214208D0DD0886
:10336000254205D15B07D008184363462900019325
:10337000CB00410F1943D4E6851A0295A842AD410E
:103380006E42CD1AAD1B2E022AD5101A82429241EE
:103390005B1A9D18634602900193002D26D02800E9
:1033A00001F056F9083807002023029ADB1BDA40A7
:1033B0000298BD401300B8402B43BC4233DC3F1B96
:1033C000791C1F291EDC20221D00521A0400904087
:1033D0009540CC40421E90412543CB4028438BE78B
:1033E00002982843D9D101000190BFE5029801F06D
:1033F0002FF9070018371F2FD6DD029B08388340AE
:103400002800DAE71C001F3FFC400022202903D0DF
:103410004032521A93401A000243531E9A41200030
:103420000023104368E70C49E71B194088E61000A9
:1034300062E70B0060E7614601911900100080E728
:1034400008000F0092E5002108008FE50B009BE5C6
:10345000FF070000FE070000FFFF7FFFF0B589B007
:10346000009201930D034B00CA0F060004002D0BC0
:103470005B0D039244D0644A93426AD0420FED0040
:103480001543802212042A430292604AC4009F1806
:103490000026019B019A1D03D20F5B0000982D0BA3
:1034A0005B0D069265D0584A934200D189E0ED0049
:1034B0005649420F2A4380255B189C462D0415432C
:1034C000C2000021069B0398584063460590B00057
:1034D0000843FB1A013804930E2800D99AE001F042
:1034E000ADF88F002602CD01260217022602CD017B
:1034F0008F008F001702CD017F007F007F00BF018A
:103500002B00034302932CD0002D15D0280001F08E
:103510009FF8010003000B391D22521A31001800D8
:10352000D140083885400A002A4335008540029280
:10353000374F2C00FF1AABE701F08AF801000300B7
:10354000153120331C29E7DD320008388240029211
:10355000EEE702002A43029207D11F000226029CD6
:1035600097E7029C0126270093E71F000326029598
:103570008FE7009A2A439A422AD09D4215D028000C
:1035800001F066F8010002000B391D2310005B1AE0
:10359000009908388540D9402943009D85401C4B3F
:1035A0009B1A9C462A000D008BE701F051F80100A0
:1035B0000200153120321C29E7DD009908388140CE
:1035C000EDE7009A2A4307D115009C46022179E7CE
:1035D00015009446012175E702009C46032171E71E
:1035E0003100039B0593022900D1A4E1032900D1F6
:1035F0009AE1012900D0FCE00024230022001FE111
:1036000000231C00004A1BE1FF07000001FCFFFF34
:103610000DFCFFFF029B9D4204D300D01BE1A242A0
:1036200000D918E1029BE607D907630819430C008B
:10363000029B5B08029313022D02170E00932B0CC2
:103640002F4306930699BBB202980393FFF700FC41
:10365000BBB243430A04210C050011438B4207D936
:10366000C919013D8F4203D88B4201D9851EC91962
:10367000C81A0699FFF7ECFBBAB242430904A4B298
:1036800003000C43A24207D9E419013BA74203D827
:10369000A24201D9831EE4192D041D43A41A009BE4
:1036A000009A1B0C12040393120CABB207925A43FC
:1036B00007980292039A290C484353435143029AB4
:1036C0001B18120C9B18984202D9802252028918AA
:1036D000029A180C12041B04120C40189A18844207
:1036E00003D302951CD196421AD26B1E0293009B03
:1036F000F6189E429B41FB1AE418A74203D30FD150
:10370000009BB3420CD8A04202D809D1B24207D9DB
:10371000AB1E0293009BF6189E429B41FB1AE418D5
:10372000B51AAE42B641201A8019874200D1AAE0EC
:103730000699FFF78DFBBBB243430A04290C040032
:1037400011438B4207D9C919013C8F4203D88B42E0
:1037500001D9841EC919C81A0699FFF779FBBBB2B3
:1037600043430904ADB202000D43AB4207D9ED1942
:10377000013AAF4203D8AB4201D9821EED19ED1ACE
:103780002304039E1343079907981C0C9AB25143D4
:1037900060437243744312180E0CB218904202D95F
:1037A000802040022418100C09041204090C00198E
:1037B0005118854204D31C00854218D1002918D025
:1037C0007D195C1EBD420DD3854203D30FD1009AF3
:1037D0008A4209D29C1E009B5A009A429B41FB1AC6
:1037E000ED180092854202D1009B994201D001233D
:1037F0001C43049B534A9A18002A47DD63070AD0EA
:103800000F232340042B06D0231DA342A441029979
:10381000091B1C000291029BDB0107D54A4B029A4F
:103820001A4080230292049ADB00D218474B9A4236
:1038300000DD80E0029BE4085B071C43029BDB0881
:103840001B031B0B12051A43059B2000DB071A43C1
:10385000110009B0F0BD049B0026013B0493EAE689
:10386000802302991B03194201D01D4257D08023A7
:10387000029A1B031343039A0592C3E6069B1400A6
:1038800005930295AFE601246442B2E71300373393
:1038900000DAB1E613001E3326DB0121049B891AEE
:1038A0002B4A20009B189C40029AC8409A40230053
:1038B0000243581E83411A43029B1400CB40620707
:1038C00008D00F222240042A04D0221DA242A44183
:1038D0001B1B140080211A0009040A400B422DD141
:1038E000E1085C070C43AAE71F2302995B429B1A7D
:1038F000D94000231F3205D0164A049B9B18029A18
:103900009A4013001C43631E9C4100230C43D6E7DE
:1039100000231C00039380231B030293A7E7069B4D
:10392000140003930295A2E7059B03939FE70023EE
:103930001C001A0084E70024230063E60023012210
:103940001C007DE7FF030000FFFFFFFEFE070000F5
:103950001E0400003E040000F0B50D0087B0040016
:103960000590E80F02901803000B09030390D80F8D
:10397000090B0490154801915E0069008446490DC9
:10398000760D814203D1019F012027431AD11700F0
:10399000664503D1039E0120164313D12C005C40E1
:1039A000012064000ED1059DAF420BD1029D049E03
:1039B000B54209D0A14205D1019911430A00531E15
:1039C0009A41100007B0F0BD6008FBE7FF07000058
:1039D000F0B50D0089B0009201930A03130B059313
:1039E000019B49001B031B0B0393019B04005B001D
:1039F0005B0D0493019B0690DF0F2B4B490D9C46FA
:103A0000EE0F99421AD0009B04980793604503D1AA
:103A1000039B009A134314D1002914D00024049B63
:103A2000002B39D1009D039B1D43002C10D0002D8D
:103A300013D00120002F10D102380EE0059820434A
:103A4000E1D0022011E0059B1C4365426C41E6E792
:103A5000A54223D10120A64207D109B0F0BD049BA5
:103A6000994204DD0120002FF7D04042F5E7049B86
:103A70009942DEDB039B059A9A4211D808D1079B35
:103A8000069A93420CD3079B069A00209342E4D9EE
:103A90000120002EE1D1CFE7002CCAD1B742DED001
:103AA0000120002ED9D0E0E7FF070000F0B587B075
:103AB000009201930B031B0B9C46019B4A001F03C2
:103AC0005B005B0D0393019B0400DE0F2B4B049006
:103AD000520DC90F3F0B9A420AD0009B03980593E1
:103AE000264B98420AD1009B3B4307D0022003E0BB
:103AF000634602202343F0D007B0F0BD002A0ED069
:103B00000024039B002B30D1009D3D439C420BD0F1
:103B10009D42F1D00120002EEED10238ECE7634641
:103B20001C4365426C41ECE7002D20D10120A942E5
:103B3000E2D04042E0E7039B9A4203DD0120002EE1
:103B4000DAD0F6E7039B9A42E4DBBC4511D808D1F2
:103B5000059B049A93420CD3059B049A0020934240
:103B6000CAD901200029C7D1D7E7002CD2D18E4273
:103B7000E1D001200029BFD0DBE7C046FF070000ED
:103B8000F0B58BB0009201930D034B00CA0F0600F5
:103B90002D0B5B0D039200D10CE1D04A934200D172
:103BA00030E1ED00420F2A4380252D041543CC4A15
:103BB000C4009F1800230293019B00981E035A0023
:103BC000DB0F360B520D049300D12AE1C34B9A420E
:103BD00000D14DE1430FF60033438026C04936043F
:103BE0001E43C30050180022C119069101310091F3
:103BF0000299880010430A2800DD66E10399049FBA
:103C000079400391022800DD41E10138012800D804
:103C100050E1190C9BB202911900220CA4B251433D
:103C200020008C46029F02995843514367430591F7
:103C30006744010CC91904908C4504D98020059F64
:103C400040023F180597080C84466846008A09041C
:103C500009180991310CB6B2049130003100049F6B
:103C6000614350437C437A4324180F0C3C19A04213
:103C700002D9802040021218200C8218240489B234
:103C800007926218089262460899029F5218290CFE
:103C9000ADB228006F4358434B439446029CFF1833
:103CA000020CD2194C43934202D980235B02E418E0
:103CB000130C1B1902932B0080B2120412180498E3
:103CC000734345434E434143A8191D0C2D18AE4282
:103CD00002D9802040020918059F0898674487424E
:103CE000B641BF189742924128049BB2C018079B67
:103CF0007642C01853420493029B84199C46A44404
:103D00006346049AB442A4419B18079A64429042C5
:103D10008041029A4042044394458041049A2D0C0C
:103D2000934292414042524210436419099A241826
:103D30006418790211434A1E9141FF0DDE0D6402A1
:103D400039435B0226430B43E40100D4DDE001214B
:103D50005A080B401A43F307CE401343009A6149B7
:103D60005218002A00DCD3E0590708D00F2119406F
:103D7000042904D0191D99429B41F61A0B00F10148
:103D800005D58021584AC9001640009A5218574953
:103D90008A4200DD07E17407DB081C43F6081305BF
:103DA0003603039A360B3343D2071343200019001E
:103DB0000BB0F0BD2C0004439C422AD09D4215D08C
:103DC000280000F045FC040002000B3C1D233000DD
:103DD0001B1B1100D84008398D4003002B433500D0
:103DE0008D4043492C008F1A1D00E3E600F030FCA3
:103DF00004000200153420321C2CE7DD33000838A3
:103E00008340EEE704002C4307D11F002500022366
:103E1000D1E6250027000123CDE61F00040003237F
:103E2000C9E6009B3343934229D0964214D0300018
:103E300000F00EFC010003000B391D221800521A7D
:103E4000009908388640D1403143009E864028487A
:103E5000C01A33000E00C6E600F0FAFB01000300B2
:103E6000153120331C29E8DD009908388140EEE740
:103E7000009B334307D110001E000222B4E61E004F
:103E800018000122B0E6030010000322ACE6012175
:103E90008140A6200F00C0000740014219D19020A8
:103EA0008000014275D1B938FF38014200D1B0E637
:103EB00004990391022A76D0032A71D0012A00D0F6
:103EC0004CE700263400320069E70F2812D00B2897
:103ED000EED02E002300029AECE7C046FF07000058
:103EE00001FCFFFFFF030000FFFFFFFEFE070000D5
:103EF0000DFCFFFF80221203154201D016424DD067
:103F0000802636032E432B4A49E7069A009225E77E
:103F100011003731D5DB11001E3127DB0120264986
:103F2000801A009A1C005218310093409140C440FE
:103F30001A002143531E9A410B00C64013435A07EF
:103F400008D00F221A40042A04D01A1D9A429B411D
:103F5000F61A130080213000090408400E4225D1D2
:103F60007407DB0802001C43F60818E71F21300025
:103F70004942891AC84000211F3204D00F49009AD3
:103F80005218310091400B435A1E934100260343BF
:103F9000D5E780253C0003972D03B1E7049A0392EF
:103FA00035001C00ACE700263400ACE700260122F7
:103FB0003400F4E6FF0700001E0400003E04000089
:103FC000F0B585B002920393CB0F0D030193039BD1
:103FD0004C006D0A410F1F032943DE0F5D00029B59
:103FE0007F0A5B0F029A3B43BC4F640DC0006D0D0E
:103FF000D200BD4203D11F00B446174302D10127AE
:104000007740BC46019E671BB44500D024E1002FD9
:1040100000DC77E0002D3BD11D0015431DD07D1E37
:10402000012F17D1821882428041C918091A100045
:104030000B0200D4FAE0A94B01379F4200D177E28E
:104040000122A74B0240194043081343C8071843F5
:104050004908EBE0A14EB74222D14A07CB089F495D
:10406000C00802438F4206D11100194300D162E219
:10407000802109030B4310009A4A3F051B03174098
:104080001B0B1F43019BDB071F43390005B0F0BD2D
:10409000924DAC4200D1CBE180252D042B433D0055
:1040A000382D2ADC1F2D17DC20261F00761BB74079
:1040B00002963E001700EF403743029EEB40B240AD
:1040C0001600721E96413E433618864280415918AA
:1040D000091A27003000ABE72E001F00203EF740F2
:1040E0000026202D03D04036761BB3401E00164319
:1040F000731E9E413E430023E6E713431E00731EDA
:104100009E41F8E7002F4DD02F1B002C11D10C0041
:1041100004430BD07C1E012F05D1801890429241A0
:10412000C918891A84E76D4EB7420AD119001000E8
:1041300093E76A4CA54200D1F4E180242404214392
:104140003C00382C29DC1F2C16DC20260F00361BE7
:10415000B74002963E000700E7403743029EE14029
:10416000B0400600701E86413E43B0189042924116
:10417000C9182F00891A5BE726000F00203EF74080
:104180000026202C03D04036361BB1400E000643DB
:10419000711E8E413E430021E7E701430E00711E70
:1041A0008E41F8E7504D671C2F4232D10D00054378
:1041B000002C13D1A54200D1AEE11C00144300D164
:1041C000ACE1821882428041CB181B1A190200D43C
:1041D000A2E143491000012719403EE7002D00D11C
:1041E000A0E11C00144300D122E14C07C008204389
:1041F0008024C9082403214206D0DD08254203D1CA
:104200002900D0085B071843CA00410F1143C000C2
:104210000EE1324CA74200D18AE1821882428041ED
:10422000CB181B1AD807520810435908430708D067
:104230000F230340042B04D0031D83428041091A3D
:1042400018000B0200D408E7244B01379F4200D12D
:104250006EE1234B194000E7002F5DDD002D33D1C7
:104260001D00154300D1F8E67D1E012F0CD1821AE6
:1042700090428041C91A091810000B02D6D5490294
:104280003C004D0A0290FDE0144EB74200D1E4E636
:10429000382D3CDC1F2D29DC20261F00761BB74063
:1042A00002963E001700EF403743029EEB40B240BB
:1042B0001600721E96413E43861BB0428041C91AC9
:1042C000091827003000D8E7044DAC4200D1AFE018
:1042D00080252D042B433D00DAE7C046FF07000090
:1042E000FFFF7FFF0000F07FFE0700002E001F0091
:1042F000203EF7400026202D03D04036761BB340E9
:104300001E001643731E9E413E430023D4E7134311
:104310001E00731E9E41F8E7002F4FD02F1B002C6C
:1043200013D10C0004430DD07C1E012F07D1101AAD
:1043300082429241591A8918634601939DE77F4E44
:10434000B7420AD161460191F0E67C4CA54200D10A
:10435000E6E08024240421433C00382C29DC1F2C77
:1043600016DC20260F00361BB74001963E000700E2
:10437000E7403743019EE140B0400600701E864191
:104380003E43901B82429241591A2F008918D3E76D
:1043900026000F00203EF7400026202C03D0403698
:1043A000361BB1400E000643711E8E413E43002174
:1043B000E7E701430E00711E8E41F8E7604E651C71
:1043C00035424ED11D000E0015430643BC4227D195
:1043D000A6420FD1310030000194B54200D13CE635
:1043E0001000624601920100194300D19DE01900BE
:1043F00000271BE7002D00D190E0851AA842B641A6
:10440000CC1AA419260205D5101A824292415B1AD1
:104410009B18E6E7280020435AD023002800E2E753
:10442000002E07D1B5427BD1802138000197C90306
:10443000424F12E6002DFBD04C07C00820438024D9
:10444000C9082403214208D0DD08254205D15B07B5
:10445000D0081843634629000193CB00410F19434C
:10446000D5E6851A0295A842AD416E42CD1AAD1B24
:104470002E022AD5101A824292415B1A9D18634679
:1044800002900193002D26D0280000F0E1F80838B2
:1044900007002023029ADB1BDA400298BD4013007C
:1044A000B8402B43BC4233DC3F1B791C1F291EDC68
:1044B00020221D00521A040090409540CC40421E1C
:1044C00090412543CB4028438DE702982843D9D11A
:1044D00001000190C1E5029800F0BAF80700183712
:1044E0001F2FD6DD029B083883402800DAE71C0026
:1044F0001F3FFC400022202903D04032521A934033
:104500001A000243531E9A412000002310436AE719
:104510000C49E71B194089E6100064E70B0062E7CD
:10452000614601911900100082E708000F0094E530
:104530000021080091E50B009DE5C046FF07000043
:10454000FE070000FFFF7FFFF0B51D004B005B0D75
:104550009C460B4F14002B030A036E00120B1B0B1F
:10456000760DBC4503D102430120002A06D100206C
:10457000BE4203D123431800431E9841F0BDC046FC
:10458000FF07000073B500900191019B114E1D03C0
:10459000590000202D0B490DDC0FB14204DD0E48FF
:1045A000814202DD0D4BE01876BD80204003284398
:1045B0000B4DA9420BDD0B4B009ACB1898400A4BD0
:1045C0005B1ADA401043002CEED04042ECE76D1A43
:1045D000E840F8E7FE0300001D040000FFFFFF7F36
:1045E00013040000EDFBFFFF3304000070B503006F
:1045F00004000200051E11D0C21785185540C40FD3
:10460000280000F025F80C4B1B1A0A280FDC0B229F
:104610002900121AD14015300A0085401203120BEE
:104620001B051343E40723432800190070BD2A002B
:104630000B3882400025F1E71E04000003B47146E8
:10464000490840004900095A49008E4403BC70479C
:104650001C2101231B04984201D3000C10391B0AB2
:10466000984201D3000A08391B09984201D3000976
:10467000043902A2105C40187047C04604030202CD
:1046800001010101000000000000000080B500AF42
:10469000044B1A68034B01210A431A60C046BD4609
:1046A00080BDC0460010024080B500AF044B1B68BF
:1046B000022213409B07DB0FDBB21800BD4680BD12
:1046C0000010024080B582B000AF7860064B1B68D6
:1046D000F822934319007B68DA00034B0A431A60FF
:1046E000C046BD4602B080BD0010024080B500AF9C
:1046F000044B5A6B034B802149020A435A63C0465C
:10470000BD4680BD0010024080B500AF054B5A6B1E
:1047100080239B0213409B03DB0FDBB21800BD46D6
:1047200080BDC0460010024080B582B000AF786006
:10473000064B5B68032293431900044B7A680A43D3
:104740005A60C046BD4602B080BDC046001002405F
:1047500080B500AF034B5B680C2213401800BD46C8
:1047600080BDC0460010024080B582B000AF7860C6
:10477000064B5B68F02293431900044B7A680A43A6
:104780005A60C046BD4602B080BDC046001002401F
:1047900080B582B000AF7860064B5B68064A134074
:1047A0001900044B7A680A435A60C046BD4602B0FD
:1047B00080BDC04600100240FFF8FFFF80B582B008
:1047C00000AF7860064B1B6B802293431900044BAB
:1047D0007A680A431A63C046BD4602B080BDC0462F
:1047E0000010024080B500AF044B1A68034B8021D3
:1047F00049040A431A60C046BD4680BD001002400D
:1048000080B500AF054B1A6880239B0413409B01C1
:10481000DB0FDBB21800BD4680BDC0460010024071
:1048200080B584B000AFF860B9607A600B4B5B680C
:104830000B4A13401900FA68BB681A43074B0A4336
:104840005A60064BDB6A0F2293431900034B7A68C8
:104850000A43DA62C046BD4604B080BD0010024083
:10486000FF7FC2FF80B582B000AF7860064B1B6847
:10487000012293431900044B7A680A431A60C04628
:10488000BD4602B080BDC0460020024080B500AFEA
:10489000034B1B68012213401800BD4680BDC04673
:1048A00000200240F0B5A5B000AF02F0CBFB00F055
:1048B00071FAE74B5A69E64B802109030A435A61B2
:1048C000E44BA022D2021A60682108240B19DB19DC
:1048D00080221A600B19DB1901225A600B19DB19AF
:1048E0000022DA600B19DB1900221A610B19DB199F
:1048F00001229A600B19DB19D64A1900100004F046
:104900003CFC04F0A5FC86231B19DB190A221A7053
:10491000CF4B5A69CE4B8021C9020A435A61CC4B16
:10492000DA69CB4B8021C9030A43DA61CA4B1A68A2
:10493000C94BA02109040A431A60C74B5A6AC64BE7
:10494000882149010A435A62C34B5A68C24BC021AD
:1049500009010A435A60C04B9A68BF4BF021090411
:104960000A439A60BC4BDA68BB4BA021C9030A43D7
:10497000DA60BA4B1A68B94B01218A431A60B74B07
:10498000B74A1A61B54B1A68B44B01210A431A6041
:10499000642408256319DA1986235B19DB19187852
:1049A00013000322042100F089F929006318DB19A0
:1049B0001B785BB285225218D219002B00DA033320
:1049C0009B101370642308215B18DB195B785BB2C2
:1049D00084225218D219002B00DA03339B10137073
:1049E000642308215B18DB199B785BB28322521881
:1049F000D219002B00DA03339B101370994B1B78EC
:104A00007A2B00D1B4E000DD09E1782B02D0792BBC
:104A100057D004E1852308269B19DB191B785BB26C
:104A20001800FFF7E3FD04000D0084239B19DB1938
:104A30001B785BB21800FFF7D9FD00228023DB054D
:104A4000FDF7A4F83860796083239B19DB191B7884
:104A50005BB21800FFF7CAFD00228023DB05FDF7DB
:104A600095F802000B0038687968FEF73BFA0200FF
:104A70000B0010001900FDF7F7F802000B002000F2
:104A80002900FEF7EBFC02000B0010001900FDF7F7
:104A900011F90022744BFFF773F802000B001000AD
:104AA0001900724A724BFEF7D9FC02000B008721F5
:104AB0008919CC1910001900FFF764FD0300237059
:104AC000DAE0842308269B19DB191B785BB21800F7
:104AD000FFF78CFD04000D0085239B19DB191B7863
:104AE0005BB21800FFF782FD00228023DB05FDF793
:104AF0004DF83860796083239B19DB191B785BB212
:104B00001800FFF773FD00228023DB05FDF73EF858
:104B100002000B0038687968FEF7E4F902000B0028
:104B200010001900FDF7A0F802000B00200029007A
:104B3000FEF794FC02000B0010001900FDF7BAF814
:104B40000022494BFFF71CF802000B00100019006F
:104B5000464A474BFEF782FC02000B008721891969
:104B6000CC1910001900FFF70DFD0300237083E03E
:104B7000852308269B19DB191B785BB21800FFF709
:104B800035FD00228023DB05FDF700F804000D0051
:104B900084239B19DB191B785BB21800FFF726FDF5
:104BA00000228023DB05FCF7F1FF02000B00200050
:104BB0002900FEF797F902000B0010001900FDF71D
:104BC00053F804000D0083239B19DB191B785BB29B
:104BD0001800FFF70BFD02000B0020002900FEF774
:104BE0003DFC02000B0010001900FDF763F80022E5
:104BF0001D4BFEF7C5FF02000B00100019001B4AF9
:104C00001B4BFEF72BFC02000B0087218919CC19E6
:104C100010001900FFF7B6FC030023702CE0154AC2
:104C200008243B1911001800FBF7B2FA3B191800D1
:104C3000FBF7F8FA03009AB23B191100180004F0D0
:104C4000E3FCFA239B00180002F060FA31E0C04652
:104C500000100240000800480004004800580040CE
:104C6000130F42104408002000806640182D445461
:104C7000FB21094070B800080E4B1B781A008723EF
:104C800008241B19DB191B785BB20B493819FBF799
:104C90007FFA3B191800FBF7C5FA03009AB23B19DB
:104CA0001100180004F0B0FCFA239B00180002F079
:104CB0002DFA6DE64408002080B8000890B585B054
:104CC00000AF0400080011003B60FB1D221C1A709D
:104CD000BB1D021C1A707B1D0A1C1A70FB1D1B7861
:104CE0005A002A4B902149020A435A60C046274B7A
:104CF0009B6902221340FAD0244BBA1D12789A62A3
:104D0000C046224B9B6940221340FAD0FB1D1B7802
:104D10005A007B1D1B781B041A431C4B1C490A4379
:104D20005A600F23FB1800221A7013E0C046174B7D
:104D30009B6904221340FAD0144B596A0F203B1888
:104D40001B783A68D318CAB21A703B181A783B1805
:104D500001321A700F23FA187B1D12781B789A42C1
:104D6000E4D3C046094B9B6920221340202BF9D184
:104D7000064BDA69054B20210A43DA61034B002216
:104D80005A60C046BD4605B090BDC04600580040C0
:104D90000024000280B500AF0120FFF763FDC0468C
:104DA000FFF774FD0300012BFAD1FFF76FFCC0463B
:104DB000FFF77AFC0300012BFAD11020FFF782FCE9
:104DC000FFF794FCC046FFF79FFC0300012BFAD1CC
:104DD0008023590380231B0200221800FFF720FDC7
:104DE000FFF700FDC046FFF70BFD0300012BFAD1D2
:104DF0000020FFF7B9FC0020FFF7CAFC0220FFF7F4
:104E000093FCC046FFF7A4FC0300082BFAD1084B23
:104E1000180004F00FFA002002F028F9031E01D058
:104E200000F008F80020FFF7C9FCC046BD4680BD71
:104E3000006CDC0280B500AF72B6C046C046FDE72C
:104E400080B500AFC046FDE780B500AFC046FDE7C6
:104E500080B500AFC046BD4680BD80B500AFC0463E
:104E6000BD4680BD80B500AF02F034F9C046BD46F6
:104E700080BD000080B500AF034B180002F062FB5C
:104E8000C046BD4680BDC0461415002080B582B026
:104E900000AF0F4B9A690E4B01210A439A610C4BEC
:104EA0009B69012213407B607B68094BDA69084BE0
:104EB000802149050A43DA61054BDA6980235B05E5
:104EC00013403B603B68C046BD4602B080BDC04653
:104ED0000010024080B584B000AF78607B68442247
:104EE00000219952054BFB60FB6899B27B68402218
:104EF000995200231800BD4604B080BD80BF000059
:104F000080B584B000AF7860094BFB607B684022BD
:104F10009B5A9BB2FA6892B2D24392B2134099B2B2
:104F20007B684022995200231800BD4604B080BD22
:104F300080BF000080B584B000AFF8603B1D1960F1
:104F40005A60FB68402201219952FB6840220021EF
:104F50009952FB68442200219952FB68502200219B
:104F6000995200231800BD4604B080BD80B59CB0A6
:104F700000AF786039606F23FB1800221A707A68DE
:104F80003B681B789B00D3181B889AB26C23FB18D4
:104F9000A1490A401A803B68DB78032B17D028DC34
:104FA000022B0ED025DC002B02D0012B18D020E0E4
:104FB0006C22BB18BA181288802189000A431A8013
:104FC0001CE06C22BB18BA1812881A8016E06C22FA
:104FD000BB18BA181288C021C9000A431A800DE014
:104FE0006C22BB18BA1812888021C9000A431A80A3
:104FF00004E06F23FB1801221A70C0467A683B68F0
:105000001B789B00D3186C22BA18128883490A4374
:1050100092B21A807A683B681B789B00D3181B8871
:105020009BB21BB27E4A13401AB23B681B781BB27C
:1050300013431AB266217B181A807A683B681B7882
:105040009B00D3187A18128874490A4392B21A80C6
:105050003B681B7B002B00D077E13B685B78002B23
:1050600000D17AE07B68BB617B6850229B5A9BB27F
:105070001A00BB699B18BB613B681B78DA00BB69EF
:10508000D3188022D200944663447B613B68DB885E
:105090005B089BB2DB189AB27B691A807A683B681E
:1050A0001B789B00D21812217B1812881A807B185B
:1050B0001B884022134016D07A683B681B789B00FF
:1050C000D3181B889AB210203B1855490A401A8001
:1050D0007A683B681B789B00D3183A1812885149AC
:1050E0000A4392B21A803B68DB78012B1DD07A68A4
:1050F0003B681B789B00D3181B889AB20C203B1886
:1051000049490A401A803B183A18128820214A401F
:105110001A807A683B681B789B00D3183A1812886B
:105120003E490A4392B21A80B5E27A683B681B781E
:105130009B00D3181B889AB20E203B183A490A40AC
:105140001A807A683B681B789B00D3183A1812883B
:1051500032490A4392B21A809DE27B683B637B68C6
:1051600050229B5A9BB21A003B6B9B183B633B68D7
:105170001B78DA003B6BD3182C4A94466344FB62DD
:105180003B68DB885B089BB2DB189AB2FB6A1A802B
:105190007B68BB627B6850229B5A9BB21A00BB6A39
:1051A0009B18BB623B681B78DA00BB6AD318204AA5
:1051B000944663447B627B6A1B889BB29B059B0D74
:1051C0009AB27B6A1A803B681B69002B08D17B6A04
:1051D0001B889BB2174A13439AB27B6A1A8045E038
:1051E0003B681B693E2B27D83B681B695B08BB6685
:1051F0003B681B690122134002D0BB6E0133BB66C2
:105200007B6A1B889AB2BB6E9BB29B029BB2134314
:105210009AB27B6A1A8029E08F89FFFF8080FFFFA6
:105220008F8FFFFFC080FFFFBF8FFFFF04040000D0
:10523000060400000080FFFF3B681B695B09BB663A
:105240003B681B691F22134002D1BB6E013BBB664A
:105250007B6A1B889AB2BB6E9BB29B029BB21343C4
:105260009BB2B54A13439AB27B6A1A807A683B684C
:105270001B789B00D21822217B1812881A807B1879
:105280001A888023DB01134016D07A683B681B78AC
:105290009B00D3181B889AB220203B18A7490A40CC
:1052A0001A807A683B681B789B00D3183A181288DA
:1052B000A3490A4392B21A803B681B78002B25D180
:1052C0007A683B681B789B00D3181B889AB21C2015
:1052D0003B189C490A401A803B183A1812888021D2
:1052E00049014A401A803B183A18128880218901E6
:1052F0004A401A807A683B681B789B00D3183A189A
:10530000128891490A4392B21A80C4E17A683B68D4
:105310001B789B00D3181B889AB21E203B18894922
:105320000A401A803B183A181288802189014A40A5
:105330001A807A683B681B789B00D3183A18128849
:1053400081490A4392B21A80A5E13B68DB78022BBF
:1053500017D17A683B681B789B00D3181B889AB2D8
:1053600062203B1875490A401A807A683B681B78AE
:105370009B00D3183A18128874490A4392B21A80D3
:1053800016E07A683B681B789B00D3181B889AB29A
:1053900064203B186E490A401A807A683B681B7883
:1053A0009B00D3183A18128867490A4392B21A80B0
:1053B0007B68FB657B6850229B5A9BB21A00FB6D91
:1053C0009B18FB653B681B78DA00FB6DD3188022C5
:1053D000D20094466344BB653B681B895B089BB263
:1053E000DB189AB2BB6D1A807B687B657B685022A4
:1053F0009B5A9BB21A007B6D9B187B653B681B78A0
:10540000DA007B6DD318534A944663443B653B688E
:105410005B895B089BB2DB189AB23B6D1A803B68D4
:105420005B78002B00D09BE07A683B681B789B0080
:10543000D21840217B1812881A807B181A88802382
:10544000DB01134016D07A683B681B789B00D318A9
:105450001B889AB23E203B1838490A401A807A6865
:105460003B681B789B00D3183A18128834490A43CA
:1054700092B21A807A683B681B789B00D2183C2154
:105480007B1812881A807B181B884022134016D084
:105490007A683B681B789B00D3181B889AB23A2025
:1054A0003B1826490A401A807A683B681B789B00A3
:1054B000D3183A18128828490A4392B21A807A6897
:1054C0003B681B789B00D3181B889AB238203B1886
:1054D0001C490A401A803B183A1812888021490159
:1054E0004A401A803B183A181288802189014A40A4
:1054F0001A807A683B681B789B00D3183A18128888
:1055000011490A4392B21A807A683B681B789B0063
:10551000D3181B889AB236203B1810490A401A80CB
:105520007A683B681B789B00D3183A1812880649A2
:105530000A4392B21A80AEE00080FFFF8F8FFFFF18
:1055400080C0FFFF8FBFFFFF8080FFFF8081FFFFD4
:105550008F8EFFFF04040000C080FFFFBF8FFFFF9E
:105560007A683B681B789B00D2184E217B18128802
:105570001A807B181A888023DB01134016D07A68C2
:105580003B681B789B00D3181B889AB24C203B18B1
:1055900044490A401A807A683B681B789B00D318FC
:1055A0003A18128840490A4392B21A807A683B68D6
:1055B0001B789B00D2184A217B1812881A807B180E
:1055C0001B884022134016D07A683B681B789B00EA
:1055D000D3181B889AB248203B1832490A401A80D7
:1055E0007A683B681B789B00D3183A1812882F49B9
:1055F0000A4392B21A803B68DB78012B1DD07A688F
:105600003B681B789B00D3181B889AB244203B1838
:1056100027490A401A803B183A18128820214A402C
:105620001A807A683B681B789B00D3183A18128856
:1056300020490A4392B21A8016E07A683B681B78C8
:105640009B00D3181B889AB246203B1818490A4081
:105650001A807A683B681B789B00D3183A18128826
:1056600014490A4392B21A807A683B681B789B00FF
:10567000D3181B889AB242203B180F490A401A805F
:105680007A683B681B789B00D3183A18128809493E
:105690000A4392B21A806F23FB181B781800BD468C
:1056A0001CB080BD8F8FFFFF80C0FFFFC080FFFF59
:1056B000BF8FFFFF8080FFFF8FBFFFFF80B58CB0E3
:1056C00000AF786039603B681B7B002B00D07EE028
:1056D0003B685B78002B3CD07A683B681B789B006A
:1056E000D2180C217B1812881A807B181B88402244
:1056F000134016D07A683B681B789B00D3181B8830
:105700009AB20A203B18C7490A401A807A683B6857
:105710001B789B00D3183A181288C3490A4392B2E7
:105720001A807A683B681B789B00D3181B889AB252
:1057300008203B18BD490A401A807A683B681B78EC
:105740009B00D3183A181288B9490A4392B21A80BA
:1057500063E17A683B681B789B00D21812217B18A2
:1057600012881A807B181A888023DB01134016D018
:105770007A683B681B789B00D3181B889AB210206C
:105780003B18A8490A401A807A683B681B789B003E
:10579000D3183A181288A7490A4392B21A807A6835
:1057A0003B681B789B00D3181B889AB20E203B18CD
:1057B000A1490A401A807A683B681B789B00D3187D
:1057C0003A1812889A490A4392B21A8025E13B6836
:1057D0005B78002B00D090E07A683B681B789B00D8
:1057E000D21820217B1812881A807B181A888023EF
:1057F000DB01134016D07A683B681B789B00D318F6
:105800001B889AB21E203B1886490A401A807A6883
:105810003B681B789B00D3183A18128885490A43C5
:1058200092B21A807A683B681B789B00D2181C21C0
:105830007B1812881A807B181B884022134016D0D0
:105840007A683B681B789B00D3181B889AB21A2091
:105850003B1874490A401A807A683B681B789B00A1
:10586000D3183A18128870490A4392B21A807A689B
:105870003B681B789B00D3181B889AB218203B18F2
:1058800068490A401A807A683B681B789B00D318E5
:105890003A18128864490A4392B21A807A683B68BF
:1058A0001B789B00D3181B889AB216203B186249BC
:1058B0000A401A807A683B681B789B00D3183A1814
:1058C00012885B490A4392B21A807A683B681B7857
:1058D0009B00D3181B889AB214203B1853490A40E6
:1058E0001A807A683B681B789B00D3183A18128894
:1058F0004F490A4392B21A808FE07A683B681B785E
:105900009B00D2182E217B1812881A807B181A88C7
:105910008023DB01134016D07A683B681B789B001C
:10592000D3181B889AB22C203B183E490A401A8093
:105930007A683B681B789B00D3183A1812883D4957
:105940000A4392B21A807A683B681B789B00D2188F
:105950002A217B1812881A807B181B88402213404A
:1059600016D07A683B681B789B00D3181B889AB2C4
:1059700028203B182B490A401A807A683B681B781C
:105980009B00D3183A18128827490A4392B21A800A
:105990007A683B681B789B00D3181B889AB2262034
:1059A0003B1820490A401A807A683B681B789B00A4
:1059B000D3183A1812881F490A4392B21A807A689B
:1059C0003B681B789B00D3181B889AB224203B1895
:1059D00016490A401A807A683B681B789B00D318E6
:1059E0003A18128812490A4392B21A807A683B68C0
:1059F0001B789B00D3181B889AB222203B180E49B3
:105A00000A401A807A683B681B789B00D3183A18C2
:105A1000128807490A4392B21A8000231800BD4633
:105A20000CB080BD8F8FFFFFC080FFFFBF8FFFFFD7
:105A30008080FFFF80C0FFFF8FBFFFFF90B5C3B026
:105A400000AF786039603B685B78012B01D000F0D3
:105A50002DFD3B689A693B681B699A4205D93B68F2
:105A60001B697A1DFF32136004E03B689B697A1D55
:105A7000FF3213603B681B7B002B25D13B685969C3
:105A80003B68DA887B1DFF331B689BB2786801F0A6
:105A90003FFA7B683B617B6850229B5A9BB21A009D
:105AA0003B699B183B613B681B78DA003B69D31864
:105AB000D74A94466344FB607B1DFF331B689AB250
:105AC000FB681A8000F0CDFC3B68DB78022B00D02D
:105AD00062E33B681A6A3B681B699A4200D809E393
