:020000040800F2
:10000000004000204D700008A9060008B106000855
:1000100000000000000000000000000000000000E0
:10002000000000000000000000000000B906000809
:100030000000000000000000C3060008CD06000814
:100040009D7000089D7000089D7000089D7000085C
:100050009D7000089D7000089D7000089D7000084C
:100060009D7000089D7000089D7000089D7000083C
:100070009D7000089D7000089D7000089D7000082C
:100080009D7000089D7000089D7000089D7000081C
:100090009D7000089D7000089D7000089D7000080C
:1000A0009D7000089D7000089D7000089D700008FC
:1000B0009D7000089D7000089D70000839070008B9
:1000C0000448054B10B5834203D0044B002B00D0ED
:1000D000984710BD7C0100207C010020000000003A
:1000E00006480749091A8B10C90FC91810B54910DD
:1000F00003D0044B002B00D0984710BD7C0100209A
:100100007C0100200000000010B5074C2378002B74
:1001100009D1FFF7D5FF054B002B02D0044800E0C2
:1001200000BF0123237010BD7C01002000000000EF
:10013000A0700008054B10B5002B03D004490548FA
:1001400000E000BFFFF7CCFF10BDC046000000007C
:1001500080010020A070000870B500260C4C0D4DE9
:10016000641BA410A64209D1002606F099FF0A4C90
:100170000A4D641BA410A64205D170BDB300EB5814
:1001800098470136EEE7B300EB5898470136F2E79F
:100190001071000810710008147100081071000837
:1001A000002934D00123002210B488422CD301242A
:1001B0002407A14204D2814202D209011B01F8E7BF
:1001C000E400A14204D2814202D249005B00F8E778
:1001D000884201D3401A1A434C08A04202D3001BA4
:1001E0005C0822438C08A04202D3001B9C082243D7
:1001F000CC08A04202D3001BDC082243002803D015
:100200001B0901D00909E3E7100010BC704701B5D4
:10021000002000F00BF802BD0029F8D003B5FFF76D
:10022000C1FF0EBC4243891A1847C0467047C046FA
:1002300090B583B000AF02003960FB1D1A70FB1D42
:100240001B787F2B28D82F4AFB1D1B785BB29B089D
:10025000C0339B009B58FA1D1278110003220A40FC
:10026000D200FF2191400A00D2431A4011003B689E
:100270009B01FF221A40FB1D1B781800032303403B
:10028000DB009A401F48FB1D1B785BB29B080A43AA
:10029000C0339B001A5031E01B4AFB1D1B7819002C
:1002A0000F230B40083B9B0806339B00D3180433F5
:1002B0001B68FA1D1278110003220A40D200FF21A8
:1002C00091400A00D2431A4011003B689B01FF2273
:1002D0001A40FB1D1B78180003230340DB009A40E3
:1002E0000948FB1D1B781C000F232340083B9B087B
:1002F0000A4306339B00C31804331A60C046BD4648
:1003000003B090BD00E100E000ED00E080B582B0F8
:1003100000AF78607B685A1E80235B049A4201D349
:10032000012310E00A4B7A68013A5A6001235B42CC
:1003300003211800FFF77CFF054B00229A60044B55
:1003400007221A6000231800BD4602B080BDC046D7
:1003500010E000E080B500AF044B1A68034B0121A8
:100360000A431A60C046BD4680BDC0460010024028
:1003700080B500AF044B1B68022213409B07DB0FC4
:10038000DBB21800BD4680BD0010024080B582B0CF
:1003900000AF7860064B1B68F822934319007B6816
:1003A000DA00034B0A431A60C046BD4602B080BD66
:1003B0000010024080B500AF044B5A6B034B802104
:1003C00049020A435A63C046BD4680BD0010024040
:1003D00080B500AF054B5A6B80239B0213409B03F3
:1003E000DB0FDBB21800BD4680BDC04600100240E6
:1003F00080B582B000AF7860064B5B680322934300
:100400001900044B7A680A435A60C046BD4602B0E0
:1004100080BDC0460010024080B500AF034B5B6852
:100420000C2213401800BD4680BDC046001002409B
:1004300080B582B000AF7860064B5B68F0229343D2
:100440001900044B7A680A435A60C046BD4602B0A0
:1004500080BDC0460010024080B582B000AF786019
:10046000064B5B68064A13401900044B7A680A433E
:100470005A60C046BD4602B080BDC0460010024072
:10048000FFF8FFFF80B582B000AF7860064B1B6BB2
:10049000802293431900044B7A680A431A63C046CA
:1004A000BD4602B080BDC0460010024080B500AF1E
:1004B000044B1A68034B802149040A431A60C04662
:1004C000BD4680BD0010024080B500AF054B1A68E4
:1004D00080239B0413409B01DB0FDBB21800BD4659
:1004E00080BDC0460010024080B584B000AFF86007
:1004F000B9607A600B4B5B680B4A13401900FA68CD
:10050000BB681A43074B0A435A60064BDB6A0F224B
:1005100093431900034B7A680A43DA62C046BD462A
:1005200004B080BD00100240FF7FC2FF80B582B0E2
:1005300000AF7860064B1B68012293431900044BFF
:100540007A680A431A60C046BD4602B080BDC04604
:100550000020024080B500AF034B1B68012213400E
:100560001800BD4680BDC0460020024080B586B060
:1005700000AF02F0C9F900F041F81C4B5A691B4B5F
:10058000802109030A435A61194BA022D2021A6042
:100590003B0080221A603B0001225A603B0000228F
:1005A000DA603B0000221A613B0001229A603B00A6
:1005B0000F4A1900100004F00CFA0E4B1B6864215E
:1005C0001800FFF7EDFD03001800FFF79FFE04F091
:1005D0006BFA094B0C21180004F03CFCFA239B0039
:1005E000180002F0F5F9C046F3E7C04600100240DB
:1005F0000008004808000020B870000880B500AF6F
:100600000120FFF793FFC046FFF7A4FF0300012B73
:10061000FAD1FFF79FFEC046FFF7AAFE0300012BA9
:10062000FAD11020FFF7B2FEFFF7C4FEC046FFF775
:10063000CFFE0300012BFAD18023590380231B0234
:1006400000221800FFF750FFFFF730FFC046FFF70A
:100650003BFF0300012BFAD10020FFF7E9FE002049
:10066000FFF7FAFE0220FFF7C3FEC046FFF7D4FEF5
:100670000300082BFAD1084B180004F007FA0020F9
:1006800002F056F9031E01D000F008F80020FFF731
:10069000F9FEC046BD4680BD006CDC0280B500AFEF
:1006A00072B6C046C046FDE780B500AFC046FDE764
:1006B00080B500AFC046FDE780B500AFC046BD467F
:1006C00080BD80B500AFC046BD4680BD80B500AFDF
:1006D000164B1B885A1C91B2144A1180322B0CD035
:1006E000642B1DD1114B00221A80114B5A69104BFB
:1006F000802149004A405A6112E00E4B1B78002BC2
:1007000003D00B4B80229A6202E0094B80229A614F
:10071000084B1B7801225340DAB2064B1A70C046D0
:1007200002F03AF9C046BD4680BDC046980100209F
:10073000000800489A01002080B500AF034B180064
:1007400002F062FBC046BD4680BDC046640E00207C
:1007500080B582B000AF0F4B9A690E4B01210A435E
:100760009A610C4B9B69012213407B607B68094BAB
:10077000DA69084B802149050A43DA61054BDA69D9
:1007800080235B0513403B603B68C046BD4602B01A
:1007900080BDC0460010024080B584B000AF7860D4
:1007A0007B68442200219952054BFB60FB6899B29B
:1007B0007B684022995200231800BD4604B080BDDA
:1007C00080BF000080B584B000AF7860094BFB604B
:1007D0007B6840229B5A9BB2FA6892B2D24392B293
:1007E000134099B27B684022995200231800BD46FD
:1007F00004B080BD80BF000080B584B000AFF86059
:100800003B1D19605A60FB68402201219952FB6828
:10081000402200219952FB68442200219952FB6832
:1008200050220021995200231800BD4604B080BD1B
:1008300080B59CB000AF786039606F23FB18002250
:100840001A707A683B681B789B00D3181B889AB291
:100850006C23FB18A1490A401A803B68DB78032B04
:1008600017D028DC022B0ED025DC002B02D0012B68
:1008700018D020E06C22BB18BA1812888021890099
:100880000A431A801CE06C22BB18BA1812881A801E
:1008900016E06C22BB18BA181288C021C9000A439E
:1008A0001A800DE06C22BB18BA1812888021C9008A
:1008B0000A431A8004E06F23FB1801221A70C04615
:1008C0007A683B681B789B00D3186C22BA18128890
:1008D00083490A4392B21A807A683B681B789B006E
:1008E000D3181B889BB21BB27E4A13401AB23B68D6
:1008F0001B781BB213431AB266217B181A807A68E0
:100900003B681B789B00D3187A18128874490A43F5
:1009100092B21A803B681B7B002B00D077E13B68CA
:100920005B78002B00D17AE07B68BB617B6850224A
:100930009B5A9BB21A00BB699B18BB613B681B7832
:10094000DA00BB69D3188022D200944663447B61ED
:100950003B68DB885B089BB2DB189AB27B691A8024
:100960007A683B681B789B00D21812217B1812888A
:100970001A807B181B884022134016D07A683B6887
:100980001B789B00D3181B889AB210203B1855493E
:100990000A401A807A683B681B789B00D3183A1883
:1009A000128851490A4392B21A803B68DB78012BC6
:1009B0001DD07A683B681B789B00D3181B889AB2BD
:1009C0000C203B1849490A401A803B183A181288F3
:1009D00020214A401A807A683B681B789B00D31814
:1009E0003A1812883E490A4392B21A80B5E27A68F0
:1009F0003B681B789B00D3181B889AB20E203B18CB
:100A00003A490A401A807A683B681B789B00D318E1
:100A10003A18128832490A4392B21A809DE27B68E2
:100A20003B637B6850229B5A9BB21A003B6B9B181E
:100A30003B633B681B78DA003B6BD3182C4A944627
:100A40006344FB623B68DB885B089BB2DB189AB2AD
:100A5000FB6A1A807B68BB627B6850229B5A9BB200
:100A60001A00BB6A9B18BB623B681B78DA00BB6A42
:100A7000D318204A944663447B627B6A1B889BB2EE
:100A80009B059B0D9AB27B6A1A803B681B69002B01
:100A900008D17B6A1B889BB2174A13439AB27B6AC0
:100AA0001A8045E03B681B693E2B27D83B681B69D1
:100AB0005B08BB663B681B690122134002D0BB6E1A
:100AC0000133BB667B6A1B889AB2BB6E9BB29B02EA
:100AD0009BB213439AB27B6A1A8029E08F89FFFF89
:100AE0008080FFFF8F8FFFFFC080FFFFBF8FFFFF62
:100AF00004040000060400000080FFFF3B681B693F
:100B00005B09BB663B681B691F22134002D1BB6EA9
:100B1000013BBB667B6A1B889AB2BB6E9BB29B0291
:100B20009BB213439BB2B54A13439AB27B6A1A80B5
:100B30007A683B681B789B00D21822217B181288A8
:100B40001A807B181A888023DB01134016D07A683C
:100B50003B681B789B00D3181B889AB220203B1857
:100B6000A7490A401A807A683B681B789B00D31813
:100B70003A181288A3490A4392B21A803B681B783C
:100B8000002B25D17A683B681B789B00D3181B8803
:100B90009AB21C203B189C490A401A803B183A180C
:100BA0001288802149014A401A803B183A1812885D
:100BB000802189014A401A807A683B681B789B0033
:100BC000D3183A18128891490A4392B21A80C4E1A4
:100BD0007A683B681B789B00D3181B889AB21E204A
:100BE0003B1889490A401A803B183A18128880211C
:100BF00089014A401A807A683B681B789B00D318A9
:100C00003A18128881490A4392B21A80A5E13B68DA
:100C1000DB78022B17D17A683B681B789B00D318CE
:100C20001B889AB262203B1875490A401A807A687C
:100C30003B681B789B00D3183A18128874490A4302
:100C400092B21A8016E07A683B681B789B00D31832
:100C50001B889AB264203B186E490A401A807A6851
:100C60003B681B789B00D3183A18128867490A43DF
:100C700092B21A807B68FB657B6850229B5A9BB2BC
:100C80001A00FB6D9B18FB653B681B78DA00FB6D57
:100C9000D3188022D20094466344BB653B681B890D
:100CA0005B089BB2DB189AB2BB6D1A807B687B65D0
:100CB0007B6850229B5A9BB21A007B6D9B187B6508
:100CC0003B681B78DA007B6DD318534A9446634423
:100CD0003B653B685B895B089BB2DB189AB23B6D56
:100CE0001A803B685B78002B00D09BE07A683B68F9
:100CF0001B789B00D21840217B1812881A807B1821
:100D00001A888023DB01134016D07A683B681B7871
:100D10009B00D3181B889AB23E203B1838490A40E2
:100D20001A807A683B681B789B00D3183A1812889F
:100D300034490A4392B21A807A683B681B789B0058
:100D4000D2183C217B1812881A807B181B884022FD
:100D5000134016D07A683B681B789B00D3181B8819
:100D60009AB23A203B1826490A401A807A683B68B2
:100D70001B789B00D3183A18128828490A4392B26C
:100D80001A807A683B681B789B00D3181B889AB23C
:100D900038203B181C490A401A803B183A18128820
:100DA000802149014A401A803B183A181288802154
:100DB00089014A401A807A683B681B789B00D318E7
:100DC0003A18128811490A4392B21A807A683B682D
:100DD0001B789B00D3181B889AB236203B18104909
:100DE0000A401A807A683B681B789B00D3183A182F
:100DF000128806490A4392B21A80AEE00080FFFFD3
:100E00008F8FFFFF80C0FFFF8FBFFFFF8080FFFF3E
:100E10008081FFFF8F8EFFFF04040000C080FFFF72
:100E2000BF8FFFFF7A683B681B789B00D2184E216A
:100E30007B1812881A807B181A888023DB011340E4
:100E400016D07A683B681B789B00D3181B889AB22F
:100E50004C203B1844490A401A807A683B681B784A
:100E60009B00D3183A18128840490A4392B21A805C
:100E70007A683B681B789B00D2184A217B1812883D
:100E80001A807B181B884022134016D07A683B6872
:100E90001B789B00D3181B889AB248203B18324914
:100EA0000A401A807A683B681B789B00D3183A186E
:100EB00012882F490A4392B21A803B68DB78012BD3
:100EC0001DD07A683B681B789B00D3181B889AB2A8
:100ED00044203B1827490A401A803B183A181288C8
:100EE00020214A401A807A683B681B789B00D318FF
:100EF0003A18128820490A4392B21A8016E07A689A
:100F00003B681B789B00D3181B889AB246203B187D
:100F100018490A401A807A683B681B789B00D318EE
:100F20003A18128814490A4392B21A807A683B68C8
:100F30001B789B00D3181B889AB242203B180F499C
:100F40000A401A807A683B681B789B00D3183A18CD
:100F5000128809490A4392B21A806F23FB181B7842
:100F60001800BD461CB080BD8F8FFFFF80C0FFFF03
:100F7000C080FFFFBF8FFFFF8080FFFF8FBFFFFF9D
:100F800080B58CB000AF786039603B681B7B002B6C
:100F900000D07EE03B685B78002B3CD07A683B68F1
:100FA0001B789B00D2180C217B1812881A807B18A2
:100FB0001B884022134016D07A683B681B789B0040
:100FC000D3181B889AB20A203B18C7490A401A80D6
:100FD0007A683B681B789B00D3183A181288C3497B
:100FE0000A4392B21A807A683B681B789B00D31838
:100FF0001B889AB208203B18BD490A401A807A68BB
:101000003B681B789B00D3183A181288B9490A43E9
:1010100092B21A8063E17A683B681B789B00D21811
:1010200012217B1812881A807B181A888023DB0112
:10103000134016D07A683B681B789B00D3181B8836
:101040009AB210203B18A8490A401A807A683B6877
:101050001B789B00D3183A181288A7490A4392B20A
:101060001A807A683B681B789B00D3181B889AB259
:101070000E203B18A1490A401A807A683B681B7809
:101080009B00D3183A1812889A490A4392B21A80E0
:1010900025E13B685B78002B00D090E07A683B68E4
:1010A0001B789B00D21820217B1812881A807B188D
:1010B0001A888023DB01134016D07A683B681B78BE
:1010C0009B00D3181B889AB21E203B1886490A4001
:1010D0001A807A683B681B789B00D3183A181288EC
:1010E00085490A4392B21A807A683B681B789B0054
:1010F000D2181C217B1812881A807B181B8840226A
:10110000134016D07A683B681B789B00D3181B8865
:101110009AB21A203B1874490A401A807A683B68D0
:101120001B789B00D3183A18128870490A4392B270
:101130001A807A683B681B789B00D3181B889AB288
:1011400018203B1868490A401A807A683B681B7867
:101150009B00D3183A18128864490A4392B21A8045
:101160007A683B681B789B00D3181B889AB21620BC
:101170003B1862490A401A807A683B681B789B00DA
:10118000D3183A1812885B490A4392B21A807A68D7
:101190003B681B789B00D3181B889AB214203B181D
:1011A00053490A401A807A683B681B789B00D31821
:1011B0003A1812884F490A4392B21A808FE07A682F
:1011C0003B681B789B00D2182E217B1812881A804E
:1011D0007B181A888023DB01134016D07A683B689D
:1011E0001B789B00D3181B889AB22C203B183E49D1
:1011F0000A401A807A683B681B789B00D3183A181B
:1012000012883D490A4392B21A807A683B681B787B
:101210009B00D2182A217B1812881A807B181B8801
:101220004022134016D07A683B681B789B00D31885
:101230001B889AB228203B182B490A401A807A68EA
:101240003B681B789B00D3183A18128827490A4339
:1012500092B21A807A683B681B789B00D3181B886F
:101260009AB226203B1820490A401A807A683B68C7
:101270001B789B00D3183A1812881F490A4392B270
:101280001A807A683B681B789B00D3181B889AB237
:1012900024203B1816490A401A807A683B681B785C
:1012A0009B00D3183A18128812490A4392B21A8046
:1012B0007A683B681B789B00D3181B889AB222205F
:1012C0003B180E490A401A807A683B681B789B00DD
:1012D000D3183A18128807490A4392B21A80002399
:1012E0001800BD460CB080BD8F8FFFFFC080FFFF90
:1012F000BF8FFFFF8080FFFF80C0FFFF8FBFFFFF1A
:1013000090B5C3B000AF786039603B685B78012B63
:1013100001D000F02DFD3B689A693B681B699A4239
:1013200005D93B681B697A1DFF32136004E03B68F6
:101330009B697A1DFF3213603B681B7B002B25D114
:101340003B6859693B68DA887B1DFF331B689BB299
:10135000786801F03FFA7B683B617B6850229B5ABA
:101360009BB21A003B699B183B613B681B78DA0013
:101370003B69D318D74A94466344FB607B1DFF3317
:101380001B689AB2FB681A8000F0CDFC3B68DB78E2
:10139000022B00D062E33B681A6A3B681B699A42E1
:1013A00000D809E37A683B681B789B00D3181B8838
:1013B0009AB256203B18C8490A401A807A683B689E
:1013C0001B789B00D3183A181288C4490A4392B27A
:1013D0001A803B681A6A7B1DFF331B68D21A3B6870
:1013E0001A627A683B681B789B00D3181B889BB2F3
:1013F0001A004023134000D176E17B683B633B68D1
:101400005B78002B00D074E07B68BB627B68502265
:101410009B5A9BB21A00BB6A9B18BB623B681B7845
:10142000DA00BB6AD318AE4A944663447B627B6A97
:101430001B889BB29B059B0D9AB27B6A1A807B1D11
:10144000FF331B68002B08D17B6A1B889BB2A54A1F
:1014500013439AB27B6A1A8066E07B1DFF331B68D8
:101460003E2B21D87B1DFF331B685B087A1CFF32A3
:1014700013607B1DFF331B680122134006D07B1CC9
:10148000FF331B6801337A1CFF3213607B6A1B88B1
:101490009AB27B1CFF331B689BB29B029BB2134327
:1014A0009AB27B6A1A803FE07B1DFF331B685B09A1
:1014B0007A1CFF3213607B1DFF331B681F22134011
:1014C00006D17B1CFF331B68013B7A1CFF32136083
:1014D0007B6A1B889AB27B1CFF331B689BB29B0202
:1014E0009BB213439BB27F4A13439AB27B6A1A8022
:1014F0001AE03B685B78012B16D17B6850229B5A1F
:101500009BB21A003B6B9B183B633B681B78DA006D
:101510003B6BD318724A94466344FB627B1DFF33D6
:101520001B689AB2FB6A1A8076203B183A68528987
:101530001A803B6859697B1DFF331B689CB23B18BE
:101540001A887868230001F045F93B685A697B1DC9
:10155000FF331B68D2183B685A613B681A6A3B68C4
:101560001B699A4208D93B681A6A7B1DFF331B68C6
:10157000D21A3B681A6207E03B681B6A7A1DFF3289
:1015800013603B6800221A623B685B78002B00D036
:1015900070E07B68BB617B6850229B5A9BB21A004B
:1015A000BB699B18BB613B681B78DA00BB69D31829
:1015B000484A944663447B617B691B889BB29B05C8
:1015C0009B0D9AB27B691A807B1DFF331B68002B31
:1015D00008D17B691B889BB2424A13439AB27B694C
:1015E0001A8064E07B1DFF331B683E2B1FD87B1DD8
:1015F000FF331B685B08FC217A1813607B1DFF33E7
:101600001B680122134004D07B181B6801337A1831
:1016100013607B691B889AB2FC23FB181B689BB282
:101620009B029BB213439AB27B691A803FE07B1DF9
:10163000FF331B685B09FC217A1813607B1DFF33A5
:101640001B681F22134004D17B181B68013B7A18CA
:1016500013607B691B889AB2FC23FB181B689BB242
:101660009B029BB213439BB21E4A13439AB27B69FF
:101670001A801CE03B685B78012B18D17B683B62C9
:101680007B6850229B5A9BB21A003B6A9B183B62B4
:101690003B681B78DA003B6AD3180E4A94466344D1
:1016A000FB617B1DFF331B689AB2FB691A807620B1
:1016B0003B183A6812891A803B6859697B1DFF33D1
:1016C0001B689CB23B181A887868230001F082F8E6
:1016D00029E3C046020400008F8FFFFF8081FFFFD7
:1016E000060400000080FFFF3B685B78002B00D001
:1016F00070E07B68BB647B6850229B5A9BB21A00E7
:10170000BB6C9B18BB643B681B78DA00BB6CD318BE
:10171000CD4A944663447B647B6C1B889BB29B05DB
:101720009B0D9AB27B6C1A807B1DFF331B68002BCC
:1017300008D17B6C1B889BB2C44A13439AB27B6C62
:101740001A8064E07B1DFF331B683E2B1FD87B1D76
:10175000FF331B685B08F8217A1813607B1DFF3389
:101760001B680122134004D07B181B6801337A18D0
:1017700013607B6C1B889AB2F823FB181B689BB222
:101780009B029BB213439AB27B6C1A803FE07B1D95
:10179000FF331B685B09F8217A1813607B1DFF3348
:1017A0001B681F22134004D17B181B68013B7A1869
:1017B00013607B6C1B889AB2F823FB181B689BB2E2
:1017C0009B029BB213439BB2A04A13439AB27B6C19
:1017D0001A801CE03B685B78012B18D17B683B6565
:1017E0007B6850229B5A9BB21A003B6D9B183B654D
:1017F0003B681B78DA003B6DD318934A94466344E8
:10180000FB647B1DFF331B689AB2FB6C1A80762049
:101810003B183A6812891A803B6859697B1DFF336F
:101820001B689CB23B181A887868230000F0D2FF2E
:101830003B685A697B1DFF331B68D2183B685A61AD
:101840003B681A6A3B681B699A4208D93B681A6A66
:101850007B1DFF331B68D21A3B681A6207E03B68A6
:101860001B6A7A1DFF3213603B6800221A627B6894
:101870003B643B685B78002B00D070E07B68BB6307
:101880007B6850229B5A9BB21A00BB6B9B18BB63B0
:101890003B681B78DA00BB6BD3186D4A94466344EF
:1018A0007B637B6B1B889BB29B059B0D9AB27B6B0A
:1018B0001A807B1DFF331B68002B08D17B6B1B88B4
:1018C0009BB2624A13439AB27B6B1A8062E07B1D23
:1018D000FF331B683E2B1FD87B1DFF331B685B0843
:1018E000F4217A1813607B1DFF331B68012213401B
:1018F00004D07B181B6801337A1813607B6B1B883C
:101900009AB2F423FB181B689BB29B029BB2134351
:101910009AB27B6B1A803DE07B1DFF331B685B092D
:10192000F4217A1813607B1DFF331B681F221340BC
:1019300004D17B181B68013B7A1813607B6B1B88F2
:101940009AB2F423FB181B689BB29B029BB2134311
:101950009BB23E4A13439AB27B6B1A801AE03B68F3
:101960005B78012B16D17B6850229B5A9BB21A00E0
:101970003B6C9B183B643B681B78DA003B6CD318CC
:10198000334A94466344FB637B1DFF331B689AB262
:10199000FB6B1A8076203B183A6852891A803B68A4
:1019A00059697B1DFF331B689CB23B181A88786805
:1019B000230000F00FFFB6E13B681B6A7A1DFF327F
:1019C00013607A683B681B789B00D3181B889AB217
:1019D00062203B181F490A401A807A683B681B78CE
:1019E0009B00D3183A1812881B490A4392B21A80F6
:1019F0007B68FB657B6850229B5A9BB21A00FB6D8B
:101A00009B18FB653B681B78DA00FB6DD3180E4A08
:101A100094466344BB657B1DFF331B689AB2BB6D64
:101A20001A8076203B183A6812891A803B685969F7
:101A30007B1DFF331B689CB23B181A887868230013
:101A400000F0C8FE6FE1C046020400000080FFFF06
:101A5000060400008F8EFFFF8080FFFF3B681A6A3C
:101A60007B1DFF331B68D21A3B681A627A683B6899
:101A70001B789B00D3181B889BB21A00402313408D
:101A800000D1A4E07B683B673B685B78002B00D00B
:101A900070E07B68BB667B6850229B5A9BB21A0041
:101AA000BB6E9B18BB663B681B78DA00BB6ED31815
:101AB000DA4A944663447B667B6E1B889BB29B0527
:101AC0009B0D9AB27B6E1A807B1DFF331B68002B27
:101AD00008D17B6E1B889BB2D14A13439AB27B6EAE
:101AE0001A8062E07B1DFF331B683E2B1FD87B1DD5
:101AF000FF331B685B08F0217A1813607B1DFF33EE
:101B00001B680122134004D07B181B6801337A182C
:101B100013607B6E1B889AB2F023FB181B689BB284
:101B20009B029BB213439AB27B6E1A803DE07B1DF1
:101B3000FF331B685B09F0217A1813607B1DFF33AC
:101B40001B681F22134004D17B181B68013B7A18C5
:101B500013607B6E1B889AB2F023FB181B689BB244
:101B60009B029BB213439BB2AD4A13439AB27B6E66
:101B70001A801AE03B685B78012B16D17B685022F3
:101B80009B5A9BB21A003B6F9B183B673B681B78C4
:101B9000DA003B6FD318A14A94466344FB667B1D71
:101BA000FF331B689AB2FB6E1A8076203B183A68A6
:101BB00052891A803B6859697B1DFF331B689CB2B0
:101BC0003B181A887868230000F004FEABE03B68FD
:101BD0005B78002B00D070E07B68FB677B6850224D
:101BE0009B5A9BB21A00FB6F9B18FB673B681B78E4
:101BF000DA00FB6FD3188B4A94466344BB67BB6F14
:101C00001B889BB29B059B0D9AB2BB6F1A807B1DF4
:101C1000FF331B68002B08D1BB6F1B889BB2804A27
:101C200013439AB2BB6F1A806CE07B1DFF331B68B5
:101C30003E2B1FD87B1DFF331B685B08EC217A18F5
:101C400013607B1DFF331B680122134004D07B18F7
:101C50001B6801337A181360BB6F1B889AB2EC23A0
:101C6000FB181B689BB29B029BB213439AB2BB6FDB
:101C70001A8047E07B1DFF331B685B09EC217A1853
:101C800013607B1DFF331B681F22134004D17B1898
:101C90001B68013B7A181360BB6F1B889AB2EC2358
:101CA000FB181B689BB29B029BB213439BB25C4A1E
:101CB00013439AB2BB6F1A8024E03B685B78012B18
:101CC00020D17B6884217A1813607B6850229B5A4C
:101CD0009BB21A007B181B689B187A1813603B682C
:101CE0001B78DA007B181B68D3184E4A944663446D
:101CF00080217A1813607B1DFF331B689AB27B1812
:101D00001B681A8076203B183A6812891A803B6853
:101D100059697B1DFF331B689CB23B181A88786891
:101D2000230000F057FD7A683B681B789B00D318AE
:101D30001B889AB20A203B183B490A401A803B187C
:101D40003A18128810214A401A803B183A18128813
:101D500020214A401A807A683B681B789B00D31880
:101D60003A18128831490A4392B21A8000F0E9FB0E
:101D70003B681B7B002B00D0A8E03B689A693B685E
:101D80001B699A420DD93B681B697A1DFF321360AB
:101D90003B689A697B1DFF331B68D21A3B689A61C6
:101DA00007E03B689B697A1DFF3213603B680022A5
:101DB0009A617B6890217A1813607B6850229B5A45
:101DC0009BB21A007B181B689B187A1813603B683B
:101DD0001B78DA007B181B68D318104A94466344BA
:101DE0008C217A1813607B181B681B889BB29B059B
:101DF0009B0D9AB27B181B681A807B1DFF331B68F2
:101E0000002B15D17B181B681B889BB2044A134317
:101E10009AB27B181B681A806EE3C0460604000065
:101E20000080FFFF02040000BF8FFFFF8080FFFFE4
:101E30007B1DFF331B683E2B22D87B1DFF331B68A5
:101E40005B08E8217A1813607B1DFF331B680122B1
:101E5000134004D07B181B6801337A1813608C215F
:101E60007B181B681B889AB2E823FB181B689BB27F
:101E70009B029BB213439AB27B181B681A803BE308
:101E80007B1DFF331B685B09E8217A1813607B1DFB
:101E9000FF331B681F22134004D17B181B68013BD2
:101EA0007A1813608C217B181B681B889AB2E82370
:101EB000FB181B689BB29B029BB213439BB2D74A91
:101EC00013439AB27B181B681A8015E33B68DB78D2
:101ED000022B00D089E13B685B78002B00D07BE0CF
:101EE0007B68AC217A1813607B6850229B5A9BB2A6
:101EF0001A007B181B689B187A1813603B681B78C4
:101F0000DA007B181B68D318C54A94466344A8219D
:101F10007A1813607B181B681B889BB29B059B0D6E
:101F20009AB27B181B681A803B681B69002B0AD188
:101F30007B181B681B889BB2B84A13439AB27B1864
:101F40001B681A806CE03B681B693E2B20D83B68FD
:101F50001B695B08E4217A1813603B681B69012246
:101F6000134004D07B181B6801337A181360A82132
:101F70007B181B681B889AB2E423FB181B689BB272
:101F80009B029BB213439AB27B181B681A8047E0EE
:101F90003B681B695B09E4217A1813603B681B6985
:101FA0001F22134004D17B181B68013B7A18136071
:101FB000A8217B181B681B889AB2E423FB181B68B6
:101FC0009BB29B029BB213439BB2944A13439AB2B7
:101FD0007B181B681A8023E03B685B78012B1FD1BC
:101FE0007B68B4217A1813607B6850229B5A9BB29D
:101FF0001A007B181B689B187A1813603B681B78C3
:10200000DA007B181B68D318854A94466344B021D4
:102010007A1813603B681B699AB27B181B681A8098
:102020007B68A422BA1813603B685B78002B00D051
:102030007BE07B689C217A1813607B6850229B5A56
:102040009BB21A007B181B689B187A1813603B68B8
:102050001B78DA007B181B68D318724A94466344D5
:1020600098217A1813607B181B681B889BB29B050C
:102070009B0D9AB27B181B681A803B681B69002B6A
:102080000AD17B181B681B889BB2644A13439AB21F
:102090007B181B681A8069E03B681B693E2B20D8BF
:1020A0003B681B695B08E0217A1813603B681B6979
:1020B0000122134004D07B181B6801337A18136087
:1020C00098217B181B681B889AB2E023FB181B68B9
:1020D0009BB29B029BB213439AB27B181B681A8077
:1020E00044E03B681B695B09E0217A1813603B6898
:1020F0001B691F22134004D17B181B68013B7A180F
:10210000136098217B181B681B889AB2E023FB1888
:102110001B689BB29B029BB213439BB23F4A134383
:102120009AB27B181B681A8020E03B685B78012B11
:102130001CD17B6850229B5A9BB21A00A4217B18A9
:102140001B689B187A1813603B681B78DA007B18B1
:102150001B68D318334A94466344A0217A1813604D
:102160003B681B699AB27B181B681A803B68DB6965
:10217000002B00D1C0E17A683B681B789B00D21825
:1021800096217B1812881A807B181A888023DB011D
:10219000134004D07B181B88402213400DD1962198
:1021A0007B181A888023DB01134000D0A4E17B1840
:1021B0001B884022134000D09EE17A683B681B7860
:1021C0009B00D3181B889AB294203B1816490A40EA
:1021D0001A807A683B681B789B00D3183A181288DB
:1021E00012490A4392B21A8086E13B68DB78012BE0
:1021F00000D07FE13B689A693B681B699A4217D916
:102200003B681B697A1DFF3213603B689A697B1D2E
:10221000FF331B68D21A3B689A6111E00080FFFF10
:1022200002040000060400008F8FFFFFC080FFFF44
:102230003B689B697A1DFF3213603B6800229A61FC
:102240003B685B78002B00D081E07B68CC217A185A
:1022500013607B6850229B5A9BB21A007B181B6844
:102260009B187A1813603B681B78DA007B181B6890
:10227000D318B64A94466344C8217A1813607B1871
:102280001B681B889BB29B059B0D9AB27B181B6831
:102290001A807B1DFF331B68002B0AD17B181B683B
:1022A0001B889BB2AA4A13439AB27B181B681A80F8
:1022B00072E07B1DFF331B683E2B22D87B1DFF3352
:1022C0001B685B08DC217A1813607B1DFF331B68D9
:1022D0000122134004D07B181B6801337A18136065
:1022E000C8217B181B681B889AB2DC23FB181B686B
:1022F0009BB29B029BB213439AB27B181B681A8055
:102300004AE07B1DFF331B685B09DC217A181360F0
:102310007B1DFF331B681F22134004D17B181B68F1
:10232000013B7A181360C8217B181B681B889AB27E
:10233000DC23FB181B689BB29B029BB213439BB22E
:10234000834A13439AB27B181B681A8024E03B68C7
:102350005B78012B20D17B68D4217A1813607B68CD
:1023600050229B5A9BB21A007B181B689B187A1844
:1023700013603B681B78DA007B181B68D318734A1C
:1023800094466344D0217A1813607B1DFF331B6889
:102390009AB27B181B681A807B68C422BA18136033
:1023A0003B685B78002B00D081E07B68BC217A1809
:1023B00013607B6850229B5A9BB21A007B181B68E3
:1023C0009B187A1813603B681B78DA007B181B682F
:1023D000D318604A94466344B8217A1813607B1876
:1023E0001B681B889BB29B059B0D9AB27B181B68D0
:1023F0001A807B1DFF331B68002B0AD17B181B68DA
:102400001B889BB2524A13439AB27B181B681A80EE
:1024100072E07B1DFF331B683E2B22D87B1DFF33F0
:102420001B685B08D8217A1813607B1DFF331B687B
:102430000122134004D07B181B6801337A18136003
:10244000B8217B181B681B889AB2D823FB181B681D
:102450009BB29B029BB213439AB27B181B681A80F3
:102460004AE07B1DFF331B685B09D8217A18136093
:102470007B1DFF331B681F22134004D17B181B6890
:10248000013B7A181360B8217B181B681B889AB22D
:10249000D823FB181B689BB29B029BB213439BB2D1
:1024A0002B4A13439AB27B181B681A8024E03B68BE
:1024B0005B78012B20D17B6850229B5A9BB21A007B
:1024C000C4217B181B689B187A1813603B681B7823
:1024D000DA007B181B68D3181E4A94466344C02157
:1024E0007A1813607B1DFF331B689AB27B181B6838
:1024F0001A8001E0012325E07A683B681B789B0085
:10250000D3181B889AB28A203B1813490A401A80B4
:102510003B183A181288802149014A401A803B181A
:102520003A181288802189014A401A807A683B68EB
:102530001B789B00D3183A18128808490A4392B2B4
:102540001A8000231800BD4643B090BD020400006D
:102550000080FFFF060400008FBFFFFF8080FFFFA9
:1025600080B584B000AF786039603B685B78002B41
:102570001DD07A683B681B789B00D3181B889AB2E1
:102580000C203B181B490A401A803B183A18128845
:1025900010214A401A807A683B681B789B00D31848
:1025A0003A18128814490A4392B21A801DE07A68D8
:1025B0003B681B789B00D3181B889AB20E203B18EF
:1025C0000E490A401A803B183A18128880214901A6
:1025D0004A401A807A683B681B789B00D3183A18E7
:1025E000128805490A4392B21A8000231800BD469A
:1025F00004B080BDBF8FFFFF8080FFFF8FBFFFFF54
:1026000080B586B000AF786039603B681B7B002BDB
:1026100000D095E03B685B78002B46D07A683B6839
:102620001B789B00D21810217B1812881A807B1807
:102630001B884022134016D07A683B681B789B00A9
:10264000D3181B889AB20E203B1840490A401A80C2
:102650007A683B681B789B00D3183A1812883C496B
:102660000A4392B21A803B68DB78012B68D07A6803
:102670003B681B789B00D3181B889AB20C203B1830
:1026800034490A401A803B183A18128820214A40DF
:102690001A807A683B681B789B00D3183A18128816
:1026A0002D490A4392B21A804AE07A683B681B7847
:1026B0009B00D21816217B1812881A807B181A8862
:1026C0008023DB01134016D07A683B681B789B009F
:1026D000D3181B889AB214203B181C490A401A8050
:1026E0007A683B681B789B00D3183A1812881B49FC
:1026F0000A4392B21A807A683B681B789B00D31811
:102700001B889AB212203B1815490A401A803B18C0
:102710003A181288802149014A401A803B183A1819
:102720001288802189014A401A807A683B681B78A8
:102730009B00D3183A18128807490A4392B21A80AC
:1027400000231800BD4606B080BDC0468F8FFFFF36
:10275000C080FFFFBF8FFFFF8080FFFF80C0FFFFB3
:102760008FBFFFFF80B582B000AF78600A00FB1C0E
:102770001A70FB1C1B78002B03D17B684C22802134
:10278000995200231800BD4602B080BD80B582B0CA
:1027900000AF78607B6858229B5A9BB2054A13436E
:1027A00099B27B685822995200231800BD4602B0A6
:1027B00080BDC0460080FFFF80B584B000AF786068
:1027C0007B6844229B5A9BB2FB60FB681800BD46A5
:1027D00004B080BD80B58AB000AFF860B960190060
:1027E000BB1D1A803B1D0A1C1A803B1D1B88013330
:1027F0005B08BB61FB687B61BB68FB61BB1D1A8822
:102800007B69D3188022D200944663443B62BB6943
:102810007B6221E0FB691A7812217B181A80FB6920
:1028200001331B781BB21B021AB27B1800201B5EFF
:1028300013431AB27B181A803B6A7A1812881A80DE
:102840003B6A02333B62FB690133FB61FB69013385
:10285000FB617B6A013B7B627B6A002BDAD1C0465D
:10286000C046BD460AB080BD80B58AB000AFF860F2
:10287000B9601900BB1D1A803B1D0A1C1A803B1D44
:102880001B885B089BB2BB61FB687B61BB68FB611B
:10289000BB1D1A887B69D3188022D20094466344FA
:1028A0003B62BB697B6218E03B6A1B889BB23B6161
:1028B0003B6A02333B623B69DAB2FB691A70FB691F
:1028C0000133FB613B691B0ADAB2FB691A70FB69D1
:1028D0000133FB617B6A013B7B627B6A002BE3D1A6
:1028E0003B1D1B88012213409BB2002B07D03B6A83
:1028F0001B889BB23B613B69DAB2FB691A70C04628
:10290000BD460AB080BD000080B500AF074B1A6815
:10291000064B10210A431A60002000F009F8FDF769
:1029200017FF00231800BD4680BDC04600200240AE
:1029300090B583B000AF7860144B1C68144B1B78C3
:102940001900FA239800FDF72BFC03001900200062
:10295000FDF726FC0300180000F02FF9031E01D03C
:1029600001230FE07B68032B0BD8796801235B42BE
:102970000022180000F0FCF8064B7A681A60002369
:1029800000E001231800BD4603B090BD0800002000
:10299000040000200000002080B500AF054B1B782C
:1029A0001A00054B1B68D218034B1A60C046BD467F
:1029B00080BDC046040000209C01002080B500AF0F
:1029C000024B1B681800BD4680BDC0469C0100201C
:1029D00080B584B000AF7860FFF7F0FF0300BB6004
:1029E0007B68FB60FB68013305D00A4B1B781A003B
:1029F000FB689B18FB60C046FFF7E0FF0200BB6866
:102A0000D31AFA689A42F7D8C046C046BD4604B009
:102A100080BDC0460400002080B582B000AF020037
:102A2000FB1D1A70FB1D1B787F2B09D8FB1D1B7823
:102A30001A001F231A40044B012191400A001A601A
:102A4000C046BD4602B080BD00E100E090B583B055
:102A500000AF02003960FB1D1A70FB1D1B787F2B35
:102A600028D82F4AFB1D1B785BB29B08C0339B0004
:102A70009B58FA1D1278110003220A40D200FF2150
:102A800091400A00D2431A4011003B689B01FF228B
:102A90001A40FB1D1B78180003230340DB009A40FB
:102AA0001F48FB1D1B785BB29B080A43C0339B0089
:102AB0001A5031E01B4AFB1D1B7819000F230B40F5
:102AC000083B9B0806339B00D31804331B68FA1D90
:102AD0001278110003220A40D200FF2191400A001F
:102AE000D2431A4011003B689B01FF221A40FB1D94
:102AF0001B78180003230340DB009A400948FB1DA4
:102B00001B781C000F232340083B9B080A43063315
:102B10009B00C31804331A60C046BD4603B090BD85
:102B200000E100E000ED00E080B582B000AF786029
:102B30007B685A1E80235B049A4201D3012310E074
:102B40000A4B7A68013A5A6001235B42032118005C
:102B5000FFF77CFF054B00229A60044B07221A60A6
:102B600000231800BD4602B080BDC04610E000E062
:102B700080B584B000AFB9607A600F217B18021C69
:102B80001A70BA687B181B785BB211001800FFF747
:102B90005DFFC046BD4604B080BD80B582B000AFC9
:102BA0000200FB1D1A70FB1D1B785BB21800FFF7BB
:102BB00033FFC046BD4602B080BD80B582B000AFD5
:102BC00078607B681800FFF7AFFF03001800BD4670
:102BD00002B080BD90B585B000AF78607B68002BF7
:102BE00001D10123E4E07B68734A9B5CDBB2002BDC
:102BF00008D17A68A4239B000021D1547B68180077
:102C000002F058F97B686C4A032199547B681B6871
:102C10001800FDF7D7FD0F23FB1800221A7047E0BC
:102C20000F203B181A78796813009B009B18DB0073
:102C3000CB18113301221A703B181A7879681300E7
:102C40009B009B18DB00CB1810333A1812781A70CF
:102C50003B181A78796813009B009B18DB00CB188F
:102C6000133300221A703B181A78796813009B00FE
:102C70009B18DB00CB18203300221A603B181A780F
:102C8000796813009B009B18DB00CB1824330022CB
:102C90001A603B181B7879685A1C13009B009B181C
:102CA000DB0000225A503B181A783B1801321A7088
:102CB0007B681B790F217A1812789A42B0D37B185F
:102CC00000221A7056E00F243B191A7878685223B4
:102CD000FF33190013009B009B18DB00C3185B181F
:102CE00000221A703B191A787868A823590013003B
:102CF0009B009B18DB00C3185B183A1912781A70F6
:102D00003B191A7878685423FF33190013009B008D
:102D10009B18DB00C3185B1800221A703B191A7845
:102D20007868B023590013009B009B18DB00C31880
:102D30005B1800221A603B191A787868B223590090
:102D400013009B009B18DB00C3185B1800221A605D
:102D50003B191A787868B423590013009B009B181C
:102D6000DB00C3185B1800221A603B191A783B1964
:102D700001321A707B681B790F22BA1812789A42B6
:102D8000A1D37B6818687B6859689A68FDF734FDA1
:102D90007B6800221A737B68074A012199547B687B
:102DA0009B7A012B03D17B68180001F01FFD0023E3
:102DB0001800BD4605B090BD9102000080B582B0FC
:102DC00000AF78607A68A4239B00D35C012B01D10B
:102DD000022314E07A68A4239B000121D1547B686C
:102DE0001B681800FDF7D8FC7B681B681800FFF70C
:102DF000CDFC7A68A4239B000021D1540023180045
:102E0000BD4602B080BD000080B584B000AF7860E0
:102E10007B681B681800FFF7CFFC0300FB60FA68B3
:102E200080231B02134004D07B68180000F060FB75
:102E30001DE1FA688023DB00134015D07B681B6816
:102E400044229B5A9AB27B681B688A490A4091B215
:102E5000442299527B68180002F0B7F87B68002181
:102E6000180000F015F902E1FA688023DB01134035
:102E70000CD07B681B6844229B5A9AB27B681B6803
:102E80007D490A4091B244229952F0E0FA688023C9
:102E90009B0113400CD07B681B6844229B5A9AB25A
:102EA0007B681B6875490A4091B244229952DEE062
:102EB000FA6880235B01134038D07B681B6840228E
:102EC0009B5A9AB27B681B6804218A4391B24022C4
:102ED00099527B681B6840229B5A9AB27B681B6898
:102EE00008218A4391B2402299527A68B2239B000A
:102EF000D35C012B09D17A68B2239B000021D15405
:102F00007B680021180001F09BFC7B68180002F030
:102F10009DF87B681B6844229B5A9AB27B681B68A9
:102F200057490A4091B244229952A0E0FA6880239E
:102F30001B01134028D07B681B6840229B5A9AB221
:102F40007B681B6808210A4391B2402299527B6832
:102F50001B6844229B5A9AB27B681B6849490A4005
:102F600091B2442299527B681B6840229B5A9AB2C4
:102F70007B681B6804210A4391B2402299527B6806
:102F8000180002F047F872E0FB688022134046D038
:102F90007B681B6844229B5A9AB27B681B6880211D
:102FA0008A4391B2442299527A68B2239B00D35C3F
:102FB000002B2FD17B681B6840229B5A9AB27B68FA
:102FC0001B6804210A4391B2402299527B681B6816
:102FD00040229B5A9AB27B681B6808210A4391B22F
:102FE000402299527A68B2239B000121D1547B6818
:102FF0001B6854229B5A9BB29B083C221340190029
:103000007A68B3239B00D1507B680121180001F03E
:1030100017FC2CE07B68180001F0FCFF27E0FA6841
:1030200080239B00134010D07B681B6844229B5A6E
:103030009AB27B681B6814490A4091B244229952A3
:103040007B68180001F0B2FF11E0FA6880235B0092
:1030500013400CD07B681B6844229B5A9AB27B6851
:103060001B680A490A4091B244229952C046BD46A3
:1030700004B080BDFFFBFFFFFFBFFFFFFFDFFFFFCF
:10308000FFEFFFFFFFF7FFFFFFFDFFFFFFFEFFFF6B
:1030900080B582B000AF78600A00FB1C1A707A68B5
:1030A000A4239B00D35C012B01D1022316E07A6894
:1030B000A4239B000121D1547B68FA1C12781A7357
:1030C0007B681A68FB1C1B7819001000FFF74AFB8D
:1030D0007A68A4239B000021D15400231800BD4628
:1030E00002B080BD90B585B000AF78600C001000D4
:1030F0001900FB1C221C1A703B00021C1A80BB1C0E
:103100000A1C1A700B23FB1800221A70FB1C1B7878
:103110005BB2002B0FDAFB1C1B7807221A4013004E
:103120009B009B18DB0010337A68D318FB60FB68A8
:1031300001225A700FE0FB1C1B7807221A40130073
:103140009B009B18DB005133FF337A68D318FB6078
:10315000FB6800225A70FB1C1B7807221340DAB26E
:10316000FB681A703B001A88FB681A61FB68BA1C7E
:103170001278DA70BB1C1B78022B02D1FB6800228C
:103180001A717A68A4239B00D35C012B01D102231E
:1031900013E07A68A4239B000121D1547B681B684B
:1031A000FA6811001800FDF743FB7A68A4239B001E
:1031B0000021D1540B23FB181B781800BD4605B025
:1031C00090BD80B584B000AF78600A00FB1C1A7017
:1031D000FB1C1B785BB2002B0FDAFB1C1B78072251
:1031E0001A4013009B009B18DB0010337A68D31839
:1031F000FB60FB6801225A700FE0FB1C1B78072262
:103200001A4013009B009B18DB005133FF337A6890
:10321000D318FB60FB6800225A70FB1C1B78072246
:103220001340DAB2FB681A707A68A4239B00D35C5F
:10323000012B01D1022311E07A68A4239B00012114
:10324000D1547B681B68FA6811001800FDF798FEDE
:103250007A68A4239B000021D15400231800BD46A6
:1032600004B080BD80B586B000AFF8607A603B6086
:103270000B203B180A1C1A7001007B181B780722D0
:103280001A4013009B009B18DB005133FF33FA6890
:10329000D3187B617B697A685A617B693A689A6165
:1032A0007B690022DA617B6900225A707B181B78E7
:1032B00007221340DAB27B691A70FB681B687A69CF
:1032C00011001800FEF71CF800231800BD4606B0D8
:1032D00080BD80B582B000AF78600A00FB1C1A7018
:1032E000FB1C1B7807221A407868B623590013008C
:1032F0009B009B18DB00C3185B181B681800BD46B9
:1033000002B080BD80B586B000AFF8607A603B60E7
:103310000B203B180A1C1A703B181B7807221A4016
:1033200013009B009B18DB001033FA68D3187B61F5
:103330007B697A685A617B693A689A617B69242261
:10334000012199547B693A681A627B690022DA612B
:103350007B6901225A703B181B7807221340DAB2AE
:103360007B691A70FB681B687A6911001800FDF709
:10337000C7FF00231800BD4606B080BD80B584B0ED
:1033800000AF78600A00FB1C1A70FB1C1B78072238
:1033900013407A681279934201D9012346E0FB1C5D
:1033A0001B785BB2002B0FDAFB1C1B7807221A403C
:1033B00013009B009B18DB0010337A68D318FB6066
:1033C000FB6801225A700DE0FB1C1A7813009B0069
:1033D0009B18DB005133FF337A68D318FB60FB681E
:1033E00000225A70FB6801229A70FB1C1B7807228E
:1033F0001340DAB2FB681A707A68A4239B00D35C8E
:10340000012B01D1022311E07A68A4239B00012142
:10341000D1547B681B68FA6811001800FFF7A0F808
:103420007A68A4239B000021D15400231800BD46D4
:1034300004B080BD80B584B000AF78600A00FB1C8A
:103440001A70FB1C1B780F2213407A681279934282
:1034500001D9012348E0FB1C1B785BB2002B0FDA7B
:10346000FB1C1B7807221A4013009B009B18DB00F3
:1034700010337A68D318FB60FB6801225A700FE0A2
:10348000FB1C1B7807221A4013009B009B18DB00D3
:103490005133FF337A68D318FB60FB6800225A70FF
:1034A000FB6800229A70FB1C1B7807221340DAB2DB
:1034B000FB681A707A68A4239B00D35C012B01D1AE
:1034C000022311E07A68A4239B000121D1547B6878
:1034D0001B68FA6811001800FFF792F87A68A423B5
:1034E0009B000021D15400231800BD4604B080BDCC
:1034F000B0B596B000AF786000F0EAFB7B681A6860
:1035000048203B184421525A1A803B181B88DAB2D3
:103510004F243B190F210A401A703B191B78002BCE
:1035200000D08DE13B181B881022134052D17B68DC
:103530001B681B889AB20E203B18BA490A401A80B1
:103540007B681B683A181288B7490A4392B21A80FE
:103550007B6810337B657B681B6850229B5A9BB24B
:103560001A007B6D1B78DB00D2187B681B68D318B0
:10357000AE4A944663441B889B059A0D7B6DDA61C5
:103580007B6D5A697B6DDB69D2187B6D5A617B68F4
:103590000021180001F0ECFC7B681B7BDBB2002BE8
:1035A00001D100F095FB7B6D9B69002B01D000F0F1
:1035B0008FFB7B681B7BDBB2802252421343DAB263
:1035C0007B681B6811004C2299527B6800221A7399
:1035D00000F07EFB7B685133FF337B657B681A68A4
:1035E0004C217B1812881A807B181A8880231B01B3
:1035F000134037D07B681B6850229B5A9BB21A003D
:103600007B6D1B78DB00D2187B681B68D318884A57
:10361000944663441B889B059A0D7B6DDA617B6839
:1036200018687B68A622920099187B6DDA887B6DFA
:10363000DB699BB2FFF718F97B681B681B889AB29D
:1036400010203B187B490A401A807B681B683A1897
:10365000128880210A4392B21A807B68180001F018
:1036600051FC35E34C23FB1800229B5E002B00DB52
:103670002EE37B681B681B889AB21E203B186D499D
:103680000A401A807B681B683A18128880210A4316
:1036900092B21A807B681B6850229B5A9BB21A0018
:1036A0007B6D1B78DB00D2187B681B68D318604ADF
:1036B000944663441B889B059A0D7B6DDA617B6D94
:1036C000DB69002B1AD07B6D5B69002B16D07B6801
:1036D00018687B6D59697B6DDA887B6DDB699BB2FD
:1036E000FFF7C2F87B6D5A697B6DDB69D2187B6D81
:1036F0005A617B680021180001F019FC7B681A6888
:103700004C217B1812881A807B181A8880231B0191
:10371000134000D0DCE27B181A88C0239B011A40BA
:10372000C0239B019A4200D1D2E27B681B68BB6137
:103730007B681B6850229B5A9BB21A00BB699B187E
:10374000BB61BB693A4A944663447B617B691B88D1
:103750009BB29B059B0D9AB27B691A807B6D1B699E
:10376000002B08D17B691B889BB22F4A13439AB266
:103770007B691A8035E07B6D1B693E2B17D87B6D0A
:103780001B695B087B647B6D1B690122134002D0BF
:103790007B6C01337B647B691B889AB27B6C9BB228
:1037A0009B029BB213439AB27B691A8019E07B6D2E
:1037B0001B695B097B647B6D1B691F22134002D16F
:1037C0007B6C013B7B647B691B889AB27B6C9BB2F0
:1037D0009B029BB213439BB2134A13439AB27B6979
:1037E0001A807B681B681B889AB212203B1812490A
:1037F0000A401A803B183A181288802149014A4031
:103800001A803B183A181288802189014A401A8090
:103810007B681B683A18128808490A4392B21A80DA
:1038200056E2C0460F8FFFFF0080FFFF020400003A
:10383000060400008F0F00008FBFFFFF8080FFFF96
:103840007B681B681A004F203B181B789B00D2181E
:103850004C217B1812881A807B1800229B5E002B5B
:1038600000DBFAE07B681B681A003B181B789B00A2
:10387000D3181B889AB24A243B19D1490A401A80AE
:103880007B681B681A003B181B789B00D3183A19F9
:10389000128880210A4392B21A803B181A781300CA
:1038A0009B009B18DB005133FF337A68D3187B658C
:1038B0007B6D1B7B002B25D17B681B6850229B5A9C
:1038C0009BB21A007B6D1B78DB00D2187B681B68EB
:1038D000D318BC4A944663441A8850243B19920575
:1038E000920D1A803B191B88002B00D18DE07B685C
:1038F00018687B6D59697B6DDA883B191B88FEF768
:10390000B3FF82E07B6DDB78022B0CD15023FC18D7
:103910004C23FB181A88796D7B68180000F0ECF9CD
:103920000300238071E07B681B681A007B6D1B78A5
:103930009B00D3181B889AB252203B18A2490A4018
:103940001A807B681B681A007B6D1B789B00D3185C
:103950003A1812889D490A4392B21A807B681B6804
:103960001A007B6D1B789B00D3181B889BB21A0032
:103970008023DB01134024D07B681B6850229B5AB4
:103980009BB21A007B6D1B78DB00D2187B681B682A
:10399000D3188F4A944663441A8850243B199205E1
:1039A000920D1A803B191B88002B2ED07B6818685B
:1039B0007B6D59697B6D1A893B191B88FEF754FF93
:1039C00023E07B681B6850229B5A9BB21A007B6DD8
:1039D0001B78DB00D2187B681B68D318794A9446A1
:1039E00063441A8850243B199205920D1A803B19A2
:1039F0001B88002B09D07B6818687B6D59697B6D2B
:103A00005A893B191B88FEF72FFF7B6DDA6950211D
:103A10007B181B88D2187B6DDA617B6D5A697B1825
:103A20001B88D2187B6D5A617B6D9B69002B05D07A
:103A30007B181A887B6D1B699A4207D27B6D1A78B6
:103A40007B681100180001F072FA06E07B681B68C1
:103A50007A6D11001800FDF753FC4C243B191B88AC
:103A60008022134000D133E14F203B181A78130015
:103A70009B009B18DB0010337A68D3187B657B684A
:103A80001B681A003B181B789B00D3181B889AB23E
:103A900042257B194F490A401A807B681B681A002F
:103AA0003B181B789B00D3187A1912884A490A439D
:103AB00092B21A807B6DDB78012B00D0AFE07B6D7A
:103AC00000229A617B6D1B7B002B00D19FE03B198C
:103AD0001B884022134046D07B6D5B78002B25D19C
:103AE0007B681B687B627B681B6850229B5A9BB279
:103AF0001A007B6A9B187B627B6D1B78DA007B6AFD
:103B0000D318334A944663443B623B6A1B889BB29A
:103B10009B059B0D9AB23B6A1A803B6A1B889BB23D
:103B20002D4A13439AB23B6A1A8070E07B6D5B7832
:103B3000012B6CD17B681B68FB627B681B68502281
:103B40009B5A9BB21A00FB6A9B18FB627B6D1B7829
:103B5000DA00FB6AD3181E4A94466344BB62BB6A10
:103B600000221A8053E07B681B68FB637B6D5B78E7
:103B7000002B33D17B681B687B637B681B685022FA
:103B80009B5A9BB21A007B6B9B187B637B6D1B78E7
:103B9000DA007B6BD3180B4A944663443B633B6B60
:103BA0001B889BB29B059B0D9AB23B6B1A803B6BAB
:103BB0001B889BB2084A13439AB23B6B1A8026E0DB
:103BC0008F0F0000060400008F8FFFFFC080FFFFF3
:103BD000020400000F8FFFFF0080FFFF7B6D5B780A
:103BE000012B14D17B681B6850229B5A9BB21A0090
:103BF000FB6B9B18FB637B6D1B78DA00FB6BD318A8
:103C00003B4A94466344BB63BB6B00221A807B6DC6
:103C10001A787B681100180001F0AAF958E04C23CB
:103C2000FB181A8880235B00134049D17B681B680E
:103C300050229B5A9BB21A007B6D1B78DB00D21876
:103C40007B681B68D3182B4A944663441A8840212A
:103C50007B189205920D1A807B6D9A697B181B88E0
:103C60009A4207D97B6D9A697B181B88D21A7B6DA3
:103C70009A6102E07B6D00229A617B6D9B69002B4B
:103C800007D17B6D1A787B681100180001F070F97C
:103C90001EE07B6D5A6940217B181B88D2187B6D12
:103CA0005A617B6DDA697B181B88D2187B6DDA61EB
:103CB0007B681B687A6D11001800FDF721FB07E097
:103CC0004C23FB181A88796D7B68180000F030F9D6
:103CD0007B681B6844229B5A9BB21BB2002B01DA03
:103CE000FFF70CFC00231800BD4616B0B0BDC0465F
:103CF000060400000204000090B589B000AFF8602F
:103D0000B960BB1D1A80BB1D1A888023DB011340DC
:103D100000D17DE0FB681B6850229B5A9BB21A00C1
:103D2000BB681B78DB00D218FB681B68D3187A4A83
:103D3000944663441A881A217B189205920D1A80C2
:103D4000BB689A697B181B889A4207D3BB689A693B
:103D50007B181B88D21ABB689A6102E0BB680022FC
:103D60009A61BB689B69002B21D1FB681B681A0014
:103D7000BB681B789B00D3181B889AB218203B188D
:103D800066490A401A803B183A1812888021890136
:103D90004A401A80FB681B681A00BB681B789B00AE
:103DA000D3183A1812885E490A4392B21A80BB1D92
:103DB0001B88402213401AD0FB681B681A00BB689E
:103DC0001B789B00D3181B889AB216203B185549C4
:103DD0000A401A80FB681B681A00BB681B789B00AE
:103DE000D3183A18128850490A4392B21A801A24FA
:103DF0003B191B88002B00D186E0FB681868BB6864
:103E00005969BB681A893B191B88FEF72DFD7BE0B9
:103E1000FB681B6850229B5A9BB21A00BB681B7838
:103E2000DB00D218FB681B68D318404A94466344F1
:103E30001A881A217B189205920D1A80BB689A691C
:103E40007B181B889A4207D3BB689A697B181B882A
:103E5000D21ABB689A6102E0BB6800229A61BB6813
:103E60009B69002B21D1FB681B681A00BB681B787B
:103E70009B00D3181B889AB21E203B1827490A4082
:103E80001A803B183A181288802189014A401A800A
:103E9000FB681B681A00BB681B789B00D3183A1894
:103EA00012881F490A4392B21A80BB1D1B88402208
:103EB00013401AD1FB681B681A00BB681B789B0073
:103EC000D3181B889AB21C203B1816490A401A8046
:103ED000FB681B681A00BB681B789B00D3183A1854
:103EE000128811490A4392B21A801A243B191B887E
:103EF000002B09D0FB681868BB685969BB685A89F0
:103F00003B191B88FEF7B0FC1A23FB181B8818000E
:103F1000BD4609B090BDC046020400008FBFFFFF40
:103F20008080FFFF8F8FFFFFC080FFFF060400002F
:103F300080B5A4B000AFF860B960BB1D1A80BB1D8E
:103F40001B884022134000D1E4E1FB681B6850222B
:103F50009B5A9BB21A00BB681B78DB00D218FB6827
:103F60001B68D318D04A944663441A8888217B186A
:103F70009205920D1A80BB689A697B181B889A4239
:103F800007D9BB689A697B181B88D21ABB689A61EB
:103F900002E0BB6800229A61BB689B69002B00D0DD
:103FA000B5E0BB685B78002B25D1FB681B68FB6222
:103FB000FB681B6850229B5A9BB21A00FB6A9B1835
:103FC000FB62BB681B78DA00FB6AD318B64A9446DA
:103FD0006344BB62BB6A1B889BB29B059B0D9AB274
:103FE000BB6A1A80BB6A1B889BB2B04A13439AB261
:103FF000BB6A1A801BE0BB685B78012B17D1FB689A
:104000001B687B63FB681B6850229B5A9BB21A009B
:104010007B6B9B187B63BB681B78DA007B6BD318C8
:10402000A14A944663443B633B6B00221A80FB68C1
:104030001B687B62BB685B78002B25D1FB681B6823
:10404000FB61FB681B6850229B5A9BB21A00FB69FC
:104050009B18FB61BB681B78DA00FB69D318944A94
:1040600094466344BB61BB691B889BB29B059B0D57
:104070009AB2BB691A80BB691B889BB28B4A1343F7
:104080009AB2BB691A8018E0BB685B78012B14D127
:10409000FB681B6850229B5A9BB21A007B6A9B18D4
:1040A0007B62BB681B78DA007B6AD318804A94462F
:1040B00063443B623B6A00221A80BB681A78FB6843
:1040C0001100180000F054FFBB1D1A888023DB018B
:1040D000134000D108E3FB681B681A00BB681B781B
:1040E0009B00D3181B889AB216203B1871490A40CE
:1040F0001A80FB681B681A00BB681B789B00D318EA
:104100003A1812886C490A4392B21A80ECE2BB1D3D
:104110001A888023DB0113401AD0FB681B681A0041
:10412000BB681B789B00D3181B889AB28A203B1867
:1041300060490A401A80FB681B681A00BB681B783C
:104140009B00D3183A1812885B490A4392B21A802E
:10415000BB6824229B5C012B00D0C5E2BB685A6976
:1041600088217B181B88D218BB685A61BB68DA6942
:104170007B181B88D218BB68DA61BB681A6ABB68F7
:104180001B699A420CD3BB681B698C217A18136097
:10419000BB681A6A7B181B68D21ABB681A621AE0DD
:1041A000BB681B6A002B0AD18823FB181B888C2252
:1041B000BA181360BB682422002199540BE0BB6835
:1041C000242200219954BB681B6A8C22BA18136000
:1041D000BB6800221A62BB685B78002B00D06DE0E0
:1041E000FB681B68FB63FB681B6850229B5A9BB2F1
:1041F0001A00FB6B9B18FB63BB681B78DA00FB6B38
:10420000D318294A94466344BB63BB6B1B889BB29B
:104210009B059B0D9AB2BB6B1A808C23FB181B6805
:10422000002B08D1BB6B1B889BB2204A13439AB268
:10423000BB6B1A8061E08C22BB181B683E2B17D821
:10424000BB181B685B08BB64BB181B6801221340CA
:1042500002D0BB6C0133BB64BB6B1B889AB2BB6CD6
:104260009BB29B029BB213439AB2BB6B1A8044E091
:104270008C22BB181B685B09BB64BB181B681F2220
:10428000134002D1BB6C013BBB64BB6B1B889AB271
:10429000BB6C9BB29B029BB213439BB2034A13437A
:1042A0009AB2BB6B1A8028E0020400000080FFFF76
:1042B000060400008F8FFFFF80C0FFFFBB685B78A4
:1042C000012B1AD1FB681B687B64FB681B685022BA
:1042D0009B5A9BB21A007B6C9B187B64BB681B7853
:1042E000DA007B6CD318D94A944663443B648C2330
:1042F000FB181B689AB23B6C1A80FB681868BB6895
:104300005969BB681A898C23FB181B689BB2FEF79E
:1043100061FAE9E1FB681B6850229B5A9BB21A00C4
:10432000BB681B78DB00D218FB681B68D318C84A2F
:10433000944663441A8888217B189205920D1A804E
:10434000BB689A697B181B889A4207D3BB689A6935
:104350007B181B88D21ABB689A6102E0BB680022F6
:104360009A61BB689B69002B00D0BBE0BB685B789F
:10437000002B25D1FB681B68FB67FB681B6850227C
:104380009B5A9BB21A00FB6F9B18FB67BB681B789C
:10439000DA00FB6FD318AD4A94466344BB67BB6F2A
:1043A0001B889BB29B059B0D9AB2BB6F1A80BB6F9B
:1043B0001B889BB2A74A13439AB2BB6F1A801BE0BB
:1043C000BB685B78012B17D1FB681B687B66FB68B9
:1043D0001B6850229B5A9BB21A007B6E9B187B660F
:1043E000BB681B78DA007B6ED318984A9446634406
:1043F0003B663B6E00221A80FB681B687B67BB68CC
:104400005B78002B2BD1FB681B68FB66FB681B6885
:1044100050229B5A9BB21A00FB6E9B18FB66BB682E
:104420001B78DA00FB6ED318894A944663448421D2
:104430007A1813607B181B681B889BB29B059B0D29
:104440009AB27B181B681A807B181B681B889BB26A
:10445000804A13439AB27B181B681A8018E0BB6825
:104460005B78012B14D1FB681B6850229B5A9BB2CE
:104470001A007B6F9B187B67BB681B78DA007B6F29
:10448000D318734A944663443B673B6F00221A80FB
:10449000BB681A78FB681100180000F069FDBB1DAD
:1044A0001A888023DB01134000D01DE1FB681B68E4
:1044B0001A00BB681B789B00D3181B889AB2822015
:1044C0003B1865490A401A80FB681B681A00BB68E4
:1044D0001B789B00D3183A18128860490A4392B29D
:1044E0001A8001E1BB1D1A888023DB0113401AD119
:1044F000FB681B681A00BB681B789B00D3181B88DD
:104500009AB24E203B1854490A401A80FB681B6837
:104510001A00BB681B789B00D3183A1812884F49C1
:104520000A4392B21A80BB6824229B5C012B00D004
:10453000DAE0BB685A6988217B181B88D218BB68EF
:104540005A61BB68DA697B181B88D218BB68DA61CC
:10455000BB681A6ABB681B699A420CD3BB681B69AB
:104560008C217A181360BB681A6A7B181B68D21AF0
:10457000BB681A621AE0BB681B6A002B0AD1882349
:10458000FB181B888C22BA181360BB6824220021F8
:1045900099540BE0BB681B6A8C22BA181360BB6885
:1045A00000221A62BB68242200219954FB681B6810
:1045B0007B65BB685B78002B00D06DE0FB681B68F7
:1045C000FB65FB681B6850229B5A9BB21A00FB6D6F
:1045D0009B18FB65BB681B78DA00FB6DD3181C4A7F
:1045E00094466344BB65BB6D1B889BB29B059B0DCA
:1045F0009AB2BB6D1A808C23FB181B68002B08D164
:10460000BB6D1B889BB2134A13439AB2BB6D1A80D1
:104610005EE08C22BB181B683E2B21D8BB181B68A0
:104620005B08BB66BB181B680122134002D0BB6E3F
:104630000133BB66BB6D1B889AB2BB6E9BB29B02FB
:104640009BB213439AB2BB6D1A8041E00204000092
:10465000060400000080FFFF8F8FFFFF80C0FFFF78
:104660008C22BB181B685B09BB66BB181B681F222A
:10467000134002D1BB6E013BBB66BB6D1B889AB277
:10468000BB6E9BB29B029BB213439BB22C4A13435B
:104690009AB2BB6D1A801BE0BB685B78012B17D107
:1046A000FB681B6850229B5A9BB21A007B6D9B18BB
:1046B0007B65BB681B78DA007B6DD318214A944672
:1046C00063443B658C23FB181B689AB23B6D1A80D0
:1046D000FB681868BB685969BB685A898C23FB184A
:1046E0001B689BB2FEF776F8FB681B681A00BB6874
:1046F0001B789B00D3181B889AB214203B181249D0
:104700000A401A803B183A18128810214A401A8031
:104710003B183A18128820214A401A80FB681B680F
:104720001A00BB681B789B00D3183A1812880749F7
:104730000A4392B21A8000231800BD4624B080BDFF
:104740000080FFFF06040000BF8FFFFF8080FFFF97
:1047500090B587B000AFF860080011007B600A24B4
:104760003B19021C1A800823FB180A1C1A8021001E
:104770007B181B88802213409BB2002B0CD07B1827
:104780001B8807221A4013009B009B18DB00103384
:10479000FA68D3187B610BE00A23FB181A88130010
:1047A0009B009B18DB005133FF33FA68D3187B6101
:1047B0000823FB181B88002B07D17B6900221A7382
:1047C0007B689AB27B69DA800BE07B6901221A73FD
:1047D0007B689AB27B691A817B681B0C9AB27B69F1
:1047E0005A8100231800BD4607B090BD80B584B043
:1047F00000AF78607B681B68FB607A68B4239B001D
:104800000121D1507A68B2239B000021D154FB686A
:1048100054229B5A9BB20122134399B2FB68542243
:104820009952FB6854229B5A9BB20222134399B2BD
:10483000FB685422995200231800BD4604B080BD85
:1048400080B582B000AF78600A00FB1C1A70C046C9
:10485000BD4602B080BD80B500AFC046BD4680BD3C
:1048600080B584B000AFF860B9607A60FB68196801
:10487000BB685B431A0013005B009B18DB430B40D3
:104880001A00BB685B4379684B431A43FB681A60A4
:10489000C046BD4604B080BD80B584B000AFF860AE
:1048A000B9607A60FB685B68BA68D2431A40BB683B
:1048B00079684B431A43FB685A60C046BD4604B052
:1048C00080BD80B584B000AFF860B9607A60FB68E5
:1048D0009968BB685B431A0013005B009B18DB43BD
:1048E0000B401A00BB685B4379684B431A43FB6873
:1048F0009A60C046BD4604B080BD80B584B000AFAC
:10490000F860B9607A60FB68D968BB685B431A00DD
:1049100013005B009B18DB430B401A00BB685B4332
:1049200079684B431A43FB68DA60C046BD4604B061
:1049300080BD80B584B000AFF860B9607A60FB6874
:10494000196ABB685B43BA685343BA685A43130099
:104950001B019B1ADB430B401A00BB685B43B96821
:104960004B43B9684B4379684B431A43FB681A625F
:10497000C046BD4604B080BD80B584B000AFF860CD
:10498000B9607A60FB68596ABB681B0ABA68120A88
:104990005343BA68120A5343BA68120A5A431300BF
:1049A0001B019B1ADB430B401A00BB681B0AB9684A
:1049B000090A4B43B968090A4B43B968090A4B43D2
:1049C00079684B431A43FB685A62C046BD4604B03F
:1049D00080BD80B584B000AF786039600023FB6093
:1049E00048E03B681B680121FA6891400A001340C7
:1049F000BB60BB68002B3AD03B685B68012B03D0DF
:104A00003B685B68022B0ED13B689A68B9687B688B
:104A10001800FFF756FF3B6819683B68DA687B6847
:104A20001800FFF739FF3B681A69B9687B681800FE
:104A3000FFF763FF3B685B68022B11D1BB68FF2B5C
:104A400007D83B685A69B9687B681800FFF771FF9F
:104A500006E03B685A69B9687B681800FFF78CFF6D
:104A60003B685A68B9687B681800FFF7F9FEFB6875
:104A70000133FB603B681A68FB68DA40131EB0D153
:104A800000231800BD4604B080BD000080B582B090
:104A900000AF7860034B7A681A60C046BD4602B02A
:104AA00080BDC0460800002080B500AF1449154BFA
:104AB0000022180000F05AFD031E01D0FBF7EEFDA6
:104AC000114A104B1100180000F081FD031E01D0A7
:104AD000FBF7E4FD0D4A0B4B1100180002F006FA3B
:104AE000031E01D0FBF7DAFD064B180000F08FFD26
:104AF000031E01D0FBF7D2FDC046BD4680BDC046B7
:104B00000C000020A0010020780000205C000020A4
:104B100080B582B000AF02003960FB1D1A703B689F
:104B200012221A80024B1800BD4602B080BDC0465A
:104B30002800002080B582B000AF02003960FB1D64
:104B40001A703B6804221A80024B1800BD4602B05E
:104B500080BDC0463C00002080B582B000AF02009E
:104B60003960FB1D1A70FB1D1B78002B06D13A68BB
:104B70000849094B180001F02BFE05E03A68054989
:104B8000054B180001F024FE024B1800BD4602B090
:104B900080BDC04664040020C870000880B582B0A3
:104BA00000AF02003960FB1D1A703A680449054BDA
:104BB000180001F00DFE024B1800BD4602B080BD8A
:104BC00064040020E070000880B582B000AF0200ED
:104BD0003960FB1D1A703B681A221A8000F04CF8ED
:104BE000024B1800BD4602B080BDC0464000002008
:104BF00080B582B000AF02003960FB1D1A70FB1D4A
:104C00001B78002B06D13A680849094B180001F0BF
:104C1000DFFD05E03A680549054B180001F0D8FDB5
:104C2000024B1800BD4602B080BDC046640400209F
:104C3000F470000880B582B000AF02003960FB1D3F
:104C40001A70FB1D1B78002B06D13A680849094BE6
:104C5000180001F0BDFD05E03A680549054B180054
:104C600001F0B6FD024B1800BD4602B080BDC04643
:104C7000640400200071000880B584B000AF104BC0
:104C80001B68FB600F4B1B68BB600F4B1B687B6096
:104C9000FA687B68D318FB60FB68002B0BD00B49CC
:104CA000FB680822180000F015F80949BB680422C7
:104CB000180000F00FF8C046BD4604B080BDC046E5
:104CC000ACF7FF1FB0F7FF1FB4F7FF1F4200002033
:104CD0005200002080B586B000AFF860B960FB1DBF
:104CE0001A7017217B1800221A707B1800221A7084
:104CF0002FE0FB681B0F092B0DD8FB681B0FDAB2E6
:104D00001723FB181B785B001900BB685B18303257
:104D1000D2B21A700CE0FB681B0FDAB21723FB1833
:104D20001B785B001900BB685B183732D2B21A706F
:104D3000FB681B01FB6017217B181B785B000133AC
:104D4000BA68D31800221A707B181A787B180132BF
:104D50001A701723FA18FB1D12781B789A42C8D3D1
:104D6000C046C046BD4606B080BD000080B500AF5D
:104D70000749084B0022180002F0D3F8064A054BF9
:104D80001100180002F0E9F800231800BD4680BDAC
:104D9000640A0020A00100206406002080B500AF56
:104DA00000231800BD4680BD80B582B000AF3960D9
:104DB0001100FB1D021C1A703B1D0A1C1A80FB1DF2
:104DC0001B78232B17D018DC222B18D015DC212BB5
:104DD00017D012DC202B16D00FDC042B15D00CDCE6
:104DE000032B14D009DC022B13D006DC002B12D0CD
:104DF000012B12D001E0C04610E0C0460EE0C046D4
:104E00000CE0C0460AE0C04608E0C04606E0C046E6
:104E100004E0C04602E0C04600E0C046002318009F
:104E2000BD4602B080BD000080B582B000AF7860A2
:104E300039607A68064B1100180002F08EF8044BB6
:104E4000180002F0D5F800231800BD4602B080BD5E
:104E5000A0010020B0B584B000AF78600A00BB1C90
:104E60001A800F23FB1800221A70114AAE239B00F0
:104E7000D358BB60BA6885239B00D358002B01D060
:104E8000012310E0BB1C1A887968094B180002F056
:104E900048F80F257C19064B180002F072F8030041
:104EA00023707B191B781800BD4604B0B0BDC04606
:104EB000A001002080B584B000AF78607B681B68DB
:104EC0000E4A934215D10E4BDA690D4B802109042D
:104ED0000A43DA610A4BDA6980231B041340FB6042
:104EE000FB68002200211F20FDF742FE1F20FDF776
:104EF00054FEC046BD4604B080BDC046005C0040C4
:104F00000010024080B582B000AF78607A68B623A6
:104F10009B00D2587B68A62189008C466344190007
:104F2000100000F0C7FBC046BD4602B080BD90B582
:104F300083B000AF78600A00FB1C1A707A68B62351
:104F40009B00D458FB1C1A787868B22359001300D0
:104F50009B009B18DB00C3185B181A68FB1C1B78AE
:104F60001900200000F004FCC046BD4603B090BD0F
:104F700080B582B000AF78600A00FB1C1A707A68B6
:104F8000B6239B00D058FB1C1A78796813009B004D
:104F90009B18DB00CB1824331A68FB1C1B78190004
:104FA00000F068FCC046BD4602B080BD80B582B04E
:104FB00000AF78607A68B6239B00D358180000F0E1
:104FC0009FFDC046BD4602B080BD80B584B000AF35
:104FD00078600F23FB1801221A707B685B79022B23
:104FE00001D0FBF75BFB7A68B6239B00D2580F23F6
:104FF000FB181B781900100000F041FD7A68B623F9
:105000009B00D358180000F0F2FCC046BD4604B027
:1050100080BD000080B582B000AF78607A68B623AA
:105020009B00D358180000F03BFD7B685B7A002B97
:1050300005D0054B1A69044B06210A431A61C04684
:10504000BD4602B080BDC04600ED00E080B582B034
:1050500000AF78607B685B7A002B07D0094B1A6938
:10506000084B06218A431A6100F042FA7A68B62397
:105070009B00D358180000F02BFDC046BD4602B07F
:1050800080BDC04600ED00E080B582B000AF786022
:105090002D4AB6239B007968D1507A68B0239B00D3
:1050A0002949D150284B294A1A60274B08221A71E6
:1050B000254B02225A71244B0222DA71224B002224
:1050C0005A72214B00229A721F4B0022DA721E4B39
:1050D0001800FDF77FFD031E01D0FBF7DFFA7A68A9
:1050E000B0239B00D058182300220021FFF730FB8B
:1050F0007A68B0239B00D058582300228021FFF704
:1051000027FB7A68B0239B00D058C023002281215E
:10511000FFF71EFB7A68B0239B00D05888235B0002
:1051200000220121FFF714FB7A68B0239B00D058BE
:1051300080235B0000228221FFF70AFB0023180076
:10514000BD4602B080BDC046640E0020005C004039
:10515000F0B585B000AF78600F217B1800221A707F
:105160000E26BB1900221A707A68B0239B00D35810
:105170000D007C181800FDF721FE03002370BC19F8
:105180007B191B78180000F0BAF903002370BB19D3
:105190001B781800BD4605B0F0BDF0B585B000AF76
:1051A00078600C0010001900FB1C221C1A70BB1C3C
:1051B000021C1A703B000A1C1A800F26BB19002221
:1051C0001A700E257B1900221A707A68B0239B0092
:1051D000D058BC19BB1C1D783B001A88FB1C1978E1
:1051E0002B00FDF77FFF030023700E257C19BB19F0
:1051F0001B78180000F083F9030023707B191B78DB
:105200001800BD4605B0F0BDF0B585B000AF7860C0
:105210000A00FB1C1A700F217B1800221A700E2640
:10522000BB1900221A707A68B0239B00D2580D0077
:105230007C18FB1C1B7819001000FDF7C2FF03004F
:105240002370BC197B191B78180000F058F9030073
:105250002370BB191B781800BD4605B0F0BDF0B532
:1052600085B000AF78600A00FB1C1A700F217B1814
:1052700000221A700E26BB1900221A707A68B02319
:105280009B00D2580D007C18FB1C1B7819001000E5
:10529000FEF774F803002370BC197B191B78180003
:1052A00000F02DF903002370BB191B781800BD46D0
:1052B00005B0F0BDF0B585B000AF78600A00FB1C0A
:1052C0001A700F217B1800221A700E26BB190022BB
:1052D0001A707A68B0239B00D2580D007C18FB1C12
:1052E0001B7819001000FEF7A5F803002370BC1905
:1052F0007B191B78180000F002F903002370BB191A
:105300001B781800BD4605B0F0BD80B584B000AF75
:1053100078600A00FB1C1A707A68B0239B00D3588F
:10532000FB60FB1C1B785BB2002B0CDAFB1C1B78B0
:105330007F221A40F96813009B009B18DB00CB18F2
:1053400012331B780DE0FB1C1B787F221A40F86893
:10535000A923590013009B009B18DB00C3185B189E
:105360001B781800BD4604B080BDF0B585B000AF15
:1053700078600A00FB1C1A700F217B1800221A703B
:105380000E26BB1900221A707A68B0239B00D258EF
:105390000D007C18FB1C1B7819001000FDF778FE2F
:1053A00003002370BC197B191B78180000F0A7F8C4
:1053B00003002370BB191B781800BD4605B0F0BD73
:1053C000F0B587B000AFF86008007A6019000B23D1
:1053D000FB18021C1A7008243B190A1C1A8017219A
:1053E0007B1800221A7016257B1900221A70FA68A1
:1053F000B0239B00D0583B191D880E007C187A689A
:105400000B23FB1819782B00FDF77CFF030023709A
:1054100016257C19BB191B78180000F070F80300E2
:1054200023707B191B781800BD4607B0F0BDF0B59E
:1054300087B000AFF86008007A6019000B23FB18F2
:10544000021C1A7008243B190A1C1A8017217B18A9
:1054500000221A7016257B1900221A70FA68B023F0
:105460009B00D0583B191D880E007C187A680B23CE
:10547000FB1819782B00FDF7F5FE030023701625A5
:105480007C19BB191B78180000F039F80300237051
:105490007B191B781800BD4607B0F0BD80B582B0FF
:1054A00000AF78600A00FB1C1A707A68B0239B007A
:1054B000D258FB1C1B7819001000FDF70AFF0300EF
:1054C0001800BD4602B080BD80B582B000AF7860E4
:1054D000024B1800BD4602B080BDC04640110020FE
:1054E00080B582B000AF7860C046BD4602B080BDD6
:1054F00080B500AFFBF782F8C046BD4680BD80B5E1
:1055000084B000AF0200FB1D1A700F23FB180022AD
:105510001A70FB1D1B78032B17D01BDC022B0FD03E
:1055200018DC002B02D0012B05D013E00F23FB1851
:1055300000221A7013E00F23FB1802221A700EE0EB
:105540000F23FB1801221A7009E00F23FB18022217
:105550001A7004E00F23FB1802221A70C0460F23B2
:10556000FB181B781800BD4604B080BD80B584B020
:1055700000AFF860B960FB1D1A70FB68002B01D109
:10558000022320E0FA68AD239B00D358002B04D0FF
:10559000FA68AD239B000021D150BB68002B04D0DA
:1055A000FA68AC239B00B968D150FA68A7239B0026
:1055B0000121D154FB68FA1D12781A70FB6818009B
:1055C000FFF762FD00231800BD4604B080BD80B522
:1055D00084B000AF786039600F203B1800221A7049
:1055E0003B68002B08D07A68AD239B003968D15006
:1055F0003B1800221A7003E00F23FB1802221A70D6
:105600000F23FB181B781800BD4604B080BD80B581
:1056100082B000AF78607B681800FFF799FD002327
:105620001800BD4602B080BD80B582B000AF786082
:1056300000231800BD4602B080BD90B585B000AF14
:1056400078600A00FB1C1A700F243B1902221A70A2
:105650007A68AD239B00D358002B0ED07A68AD2317
:105660009B00D3581B68FA1C11787A681000984781
:10567000031E02D13B1900221A700F23FB181B785E
:105680001800BD4605B090BD80B582B000AF78600F
:105690000A00FB1C1A707A68AD239B00D3585B6824
:1056A000FA1C11787A681000984700231800BD464C
:1056B00002B080BD80B582B000AF786039607B6891
:1056C000AA229200944663443A681100180001F03F
:1056D00034F87A68A5239B000121D1507B68234AC6
:1056E0009B5A19007A68A6239B00D1507A68AA2396
:1056F0009B00D35C1A001F231340022B19D022D821
:10570000002B02D0012B0AD01DE07B68AA22920058
:105710009A187B681100180000F010FA20E07B68EE
:10572000AA2292009A187B681100180000F083FAF0
:1057300016E07B68AA2292009A187B681100180074
:1057400000F0D0FA0CE07A68AA239B00D35C7F2299
:105750009343DAB27B6811001800FFF780FDC04662
:1057600000231800BD4602B080BDC046AE02000056
:1057700080B586B000AFF8607A600B203B180A1C39
:105780001A703B181B78002B54D1FB685533FF333C
:105790007B61FA68A5239B00D358032B39D17B6921
:1057A000DA687B691B699A4219D97B69DA687B6977
:1057B0001B69D21A7B69DA607B69DA687B691B69CD
:1057C0009A4203D27B69DB689BB202E07B691B696A
:1057D0009BB27968F8681A0001F0BCF845E0FA68F5
:1057E000AD239B00D3581B69002B0DD0FA68A7236B
:1057F0009B00D35C032B07D1FA68AD239B00D358E1
:105800001B69FA6810009847FB68180001F0B5F8AA
:105810002BE0FA68A5239B00D358052B25D1FA6805
:10582000A5239B000021D150FB6800211800FFF741
:1058300016FD1AE0FA68AD239B00D3589B69002B34
:1058400011D0FA68A7239B00D35C032B0BD1FA6815
:10585000AD239B00D3589B690B22BA181178FA68C4
:105860001000984701E0022300E000231800BD4625
:1058700006B080BD80B586B000AFF8607A600B20BE
:105880003B180A1C1A703B181B78002B00D08EE0C6
:10589000FB6814337B61FA68A5239B00D358022B65
:1058A00064D17B69DA687B691B699A4215D97B6987
:1058B000DA687B691B69D21A7B69DA607B69DB680D
:1058C0009AB27968FB68180001F00DF8F8680023B7
:1058D00000220021FFF7ABFD59E07B699A687B69E4
:1058E0001B6919001000FAF797FC0B1E1FD17B698A
:1058F0009A687B691B699A4219D37B699A68F9682F
:10590000A6239B00CB589A4211D2FB6800220021AB
:10591000180000F0E8FFFA68A6239B000021D15090
:10592000F868002300220021FFF781FD2FE0FA68CC
:10593000AD239B00D358DB68002B0DD0FA68A7235A
:105940009B00D35C032B07D1FA68AD239B00D3588F
:10595000DB68FA6810009847FB6880211800FFF7A1
:105960007EFCFB68180001F01CF810E0FA68A52323
:105970009B00D358042B05D0FA68A5239B00D3586D
:10598000002B04D1FB6880211800FFF768FCFA683F
:10599000A8239B00D35C012B24D1FB681800FFF7E0
:1059A00043FEFA68A8239B000021D1541AE0FA684C
:1059B000AD239B00D3585B69002B11D0FA68A72355
:1059C0009B00D35C032B0BD1FA68AD239B00D3580B
:1059D0005B690B22BA181178FA681000984701E049
:1059E000022300E000231800BD4606B080BD80B54C
:1059F00082B000AF78607868402300220021FFF772
:105A0000CCFB7A68AC235B000121D1507A68B223C9
:105A10005B004021D1507868402300228021FFF7AD
:105A2000BCFB7B6801229A617B6840225A627A68DB
:105A3000A7239B000121D1547A68A5239B00002154
:105A4000D1507B6800225A607A68A9239B0000210C
:105A5000D1507A68AE239B00D358002B0AD07A68C5
:105A6000AD239B00D3585A687B685B68D9B27B68CA
:105A70001800904700231800BD4602B080BD80B5D5
:105A800082B000AF78600A00FB1C1A707B68FA1CB9
:105A900012781A7400231800BD4602B080BD0000C1
:105AA00080B582B000AF78607A68A7239B00D15C94
:105AB0007B68064A99547A68A7239B000421D15435
:105AC00000231800BD4602B080BDC0469D02000004
:105AD00080B582B000AF78607A68A7239B00D35C62
